{
  "contractName": "piMarket",
  "abi": [
    {
      "inputs": [
        {
          "internalType": "address",
          "name": "_feeAddress",
          "type": "address"
        }
      ],
      "stateMutability": "nonpayable",
      "type": "constructor"
    },
    {
      "anonymous": false,
      "inputs": [
        {
          "indexed": false,
          "internalType": "uint256",
          "name": "price",
          "type": "uint256"
        }
      ],
      "name": "BidExecuted",
      "type": "event"
    },
    {
      "anonymous": false,
      "inputs": [
        {
          "components": [
            {
              "internalType": "uint256",
              "name": "bidId",
              "type": "uint256"
            },
            {
              "internalType": "uint256",
              "name": "saleId",
              "type": "uint256"
            },
            {
              "internalType": "address",
              "name": "sellerAddress",
              "type": "address"
            },
            {
              "internalType": "address",
              "name": "buyerAddress",
              "type": "address"
            },
            {
              "internalType": "uint256",
              "name": "price",
              "type": "uint256"
            },
            {
              "internalType": "bool",
              "name": "withdrawn",
              "type": "bool"
            }
          ],
          "indexed": false,
          "internalType": "struct piMarket.BidOrder",
          "name": "bid",
          "type": "tuple"
        }
      ],
      "name": "BidOrderReturn",
      "type": "event"
    },
    {
      "anonymous": false,
      "inputs": [
        {
          "components": [
            {
              "internalType": "uint256",
              "name": "saleId",
              "type": "uint256"
            },
            {
              "internalType": "address",
              "name": "tokenContractAddress",
              "type": "address"
            },
            {
              "internalType": "uint256",
              "name": "tokenId",
              "type": "uint256"
            },
            {
              "internalType": "uint256",
              "name": "price",
              "type": "uint256"
            },
            {
              "internalType": "bool",
              "name": "directSale",
              "type": "bool"
            },
            {
              "internalType": "bool",
              "name": "bidSale",
              "type": "bool"
            },
            {
              "internalType": "bool",
              "name": "status",
              "type": "bool"
            },
            {
              "internalType": "uint256",
              "name": "bidStartTime",
              "type": "uint256"
            },
            {
              "internalType": "uint256",
              "name": "bidEndTime",
              "type": "uint256"
            },
            {
              "internalType": "address",
              "name": "currentOwner",
              "type": "address"
            }
          ],
          "indexed": false,
          "internalType": "struct piMarket.TokenMeta",
          "name": "data",
          "type": "tuple"
        },
        {
          "indexed": false,
          "internalType": "uint256",
          "name": "id",
          "type": "uint256"
        }
      ],
      "name": "TokenMetaReturn",
      "type": "event"
    },
    {
      "inputs": [
        {
          "internalType": "uint256",
          "name": "",
          "type": "uint256"
        },
        {
          "internalType": "uint256",
          "name": "",
          "type": "uint256"
        }
      ],
      "name": "Bids",
      "outputs": [
        {
          "internalType": "uint256",
          "name": "bidId",
          "type": "uint256"
        },
        {
          "internalType": "uint256",
          "name": "saleId",
          "type": "uint256"
        },
        {
          "internalType": "address",
          "name": "sellerAddress",
          "type": "address"
        },
        {
          "internalType": "address",
          "name": "buyerAddress",
          "type": "address"
        },
        {
          "internalType": "uint256",
          "name": "price",
          "type": "uint256"
        },
        {
          "internalType": "bool",
          "name": "withdrawn",
          "type": "bool"
        }
      ],
      "stateMutability": "view",
      "type": "function",
      "constant": true
    },
    {
      "inputs": [
        {
          "internalType": "uint256",
          "name": "",
          "type": "uint256"
        }
      ],
      "name": "_tokenMeta",
      "outputs": [
        {
          "internalType": "uint256",
          "name": "saleId",
          "type": "uint256"
        },
        {
          "internalType": "address",
          "name": "tokenContractAddress",
          "type": "address"
        },
        {
          "internalType": "uint256",
          "name": "tokenId",
          "type": "uint256"
        },
        {
          "internalType": "uint256",
          "name": "price",
          "type": "uint256"
        },
        {
          "internalType": "bool",
          "name": "directSale",
          "type": "bool"
        },
        {
          "internalType": "bool",
          "name": "bidSale",
          "type": "bool"
        },
        {
          "internalType": "bool",
          "name": "status",
          "type": "bool"
        },
        {
          "internalType": "uint256",
          "name": "bidStartTime",
          "type": "uint256"
        },
        {
          "internalType": "uint256",
          "name": "bidEndTime",
          "type": "uint256"
        },
        {
          "internalType": "address",
          "name": "currentOwner",
          "type": "address"
        }
      ],
      "stateMutability": "view",
      "type": "function",
      "constant": true
    },
    {
      "inputs": [
        {
          "internalType": "address",
          "name": "",
          "type": "address"
        },
        {
          "internalType": "address",
          "name": "",
          "type": "address"
        },
        {
          "internalType": "uint256",
          "name": "",
          "type": "uint256"
        },
        {
          "internalType": "bytes",
          "name": "",
          "type": "bytes"
        }
      ],
      "name": "onERC721Received",
      "outputs": [
        {
          "internalType": "bytes4",
          "name": "",
          "type": "bytes4"
        }
      ],
      "stateMutability": "nonpayable",
      "type": "function"
    },
    {
      "inputs": [
        {
          "internalType": "address",
          "name": "_piNFTAddress",
          "type": "address"
        },
        {
          "internalType": "uint256",
          "name": "_tokenId",
          "type": "uint256"
        },
        {
          "internalType": "uint256",
          "name": "_price",
          "type": "uint256"
        }
      ],
      "name": "sellNFT",
      "outputs": [],
      "stateMutability": "nonpayable",
      "type": "function"
    },
    {
      "inputs": [
        {
          "internalType": "address",
          "name": "_contractAddress",
          "type": "address"
        },
        {
          "internalType": "uint256",
          "name": "_tokenId",
          "type": "uint256"
        }
      ],
      "name": "retrieveRoyalty",
      "outputs": [
        {
          "components": [
            {
              "internalType": "address payable",
              "name": "account",
              "type": "address"
            },
            {
              "internalType": "uint96",
              "name": "value",
              "type": "uint96"
            }
          ],
          "internalType": "struct LibShare.Share[]",
          "name": "",
          "type": "tuple[]"
        }
      ],
      "stateMutability": "view",
      "type": "function",
      "constant": true
    },
    {
      "inputs": [
        {
          "internalType": "uint256",
          "name": "_saleId",
          "type": "uint256"
        }
      ],
      "name": "BuyNFT",
      "outputs": [],
      "stateMutability": "payable",
      "type": "function",
      "payable": true
    },
    {
      "inputs": [
        {
          "internalType": "uint256",
          "name": "_saleId",
          "type": "uint256"
        }
      ],
      "name": "cancelSale",
      "outputs": [],
      "stateMutability": "nonpayable",
      "type": "function"
    },
    {
      "inputs": [
        {
          "internalType": "address",
          "name": "_piNFTAddress",
          "type": "address"
        },
        {
          "internalType": "uint256",
          "name": "_tokenId",
          "type": "uint256"
        },
        {
          "internalType": "uint256",
          "name": "_price",
          "type": "uint256"
        },
        {
          "internalType": "uint256",
          "name": "_bidTime",
          "type": "uint256"
        }
      ],
      "name": "SellNFT_byBid",
      "outputs": [],
      "stateMutability": "nonpayable",
      "type": "function"
    },
    {
      "inputs": [
        {
          "internalType": "uint256",
          "name": "_saleId",
          "type": "uint256"
        }
      ],
      "name": "Bid",
      "outputs": [],
      "stateMutability": "payable",
      "type": "function",
      "payable": true
    },
    {
      "inputs": [
        {
          "internalType": "uint256",
          "name": "_saleId",
          "type": "uint256"
        },
        {
          "internalType": "uint256",
          "name": "_bidOrderID",
          "type": "uint256"
        }
      ],
      "name": "executeBidOrder",
      "outputs": [],
      "stateMutability": "nonpayable",
      "type": "function"
    },
    {
      "inputs": [
        {
          "internalType": "uint256",
          "name": "_saleId",
          "type": "uint256"
        },
        {
          "internalType": "uint256",
          "name": "_bidId",
          "type": "uint256"
        }
      ],
      "name": "withdrawBidMoney",
      "outputs": [],
      "stateMutability": "nonpayable",
      "type": "function"
    }
  ],
  "bytecode": "0x60806040523480156200001157600080fd5b506040516200390738038062003907833981810160405281019062000037919062000164565b6001600081905550600073ffffffffffffffffffffffffffffffffffffffff168173ffffffffffffffffffffffffffffffffffffffff161415620000b2576040517f08c379a0000000000000000000000000000000000000000000000000000000008152600401620000a990620001f7565b60405180910390fd5b80600260006101000a81548173ffffffffffffffffffffffffffffffffffffffff021916908373ffffffffffffffffffffffffffffffffffffffff1602179055505062000219565b600080fd5b600073ffffffffffffffffffffffffffffffffffffffff82169050919050565b60006200012c82620000ff565b9050919050565b6200013e816200011f565b81146200014a57600080fd5b50565b6000815190506200015e8162000133565b92915050565b6000602082840312156200017d576200017c620000fa565b5b60006200018d848285016200014d565b91505092915050565b600082825260208201905092915050565b7f46656520616464726573732063616e6e6f74206265207a65726f000000000000600082015250565b6000620001df601a8362000196565b9150620001ec82620001a7565b602082019050919050565b600060208201905081810360008301526200021281620001d0565b9050919050565b6136de80620002296000396000f3fe60806040526004361061009c5760003560e01c806396faba9d1161006457806396faba9d14610192578063a37365e0146101cf578063a7f323da146101eb578063bd94b0051461022d578063f436682a14610256578063f779a1931461027f5761009c565b8063150b7a02146100a15780632bd87c4f146100de57806376cb6647146101075780637a183e84146101305780638e57ff161461014c575b600080fd5b3480156100ad57600080fd5b506100c860048036038101906100c391906125fa565b6102a8565b6040516100d591906126b8565b60405180910390f35b3480156100ea57600080fd5b50610105600480360381019061010091906126d3565b6102bc565b005b34801561011357600080fd5b5061012e600480360381019061012991906126d3565b6105fe565b005b61014a60048036038101906101459190612713565b610ceb565b005b34801561015857600080fd5b50610173600480360381019061016e9190612713565b611076565b6040516101899a99989796959493929190612779565b60405180910390f35b34801561019e57600080fd5b506101b960048036038101906101b49190612815565b611131565b6040516101c6919061297b565b60405180910390f35b6101e960048036038101906101e49190612713565b6111ba565b005b3480156101f757600080fd5b50610212600480360381019061020d91906126d3565b611844565b6040516102249695949392919061299d565b60405180910390f35b34801561023957600080fd5b50610254600480360381019061024f9190612713565b6118ea565b005b34801561026257600080fd5b5061027d600480360381019061027891906129fe565b611b6a565b005b34801561028b57600080fd5b506102a660048036038101906102a19190612a65565b611f7c565b005b600063150b7a0260e01b9050949350505050565b60026000541415610302576040517f08c379a00000000000000000000000000000000000000000000000000000000081526004016102f990612b15565b60405180910390fd5b60026000819055506003600083815260200190815260200160002060070160009054906101000a900473ffffffffffffffffffffffffffffffffffffffff1673ffffffffffffffffffffffffffffffffffffffff163373ffffffffffffffffffffffffffffffffffffffff16141561037957600080fd5b60006004600084815260200190815260200160002082815481106103a05761039f612b35565b5b90600052602060002090600602016040518060c001604052908160008201548152602001600182015481526020016002820160009054906101000a900473ffffffffffffffffffffffffffffffffffffffff1673ffffffffffffffffffffffffffffffffffffffff1673ffffffffffffffffffffffffffffffffffffffff1681526020016003820160009054906101000a900473ffffffffffffffffffffffffffffffffffffffff1673ffffffffffffffffffffffffffffffffffffffff1673ffffffffffffffffffffffffffffffffffffffff168152602001600482015481526020016005820160009054906101000a900460ff16151515158152505090503373ffffffffffffffffffffffffffffffffffffffff16816060015173ffffffffffffffffffffffffffffffffffffffff16146104dc57600080fd5b8060a00151156104eb57600080fd5b60003373ffffffffffffffffffffffffffffffffffffffff16826080015160405161051590612b95565b60006040518083038185875af1925050503d8060008114610552576040519150601f19603f3d011682016040523d82523d6000602084013e610557565b606091505b5050905080156105b557600160046000868152602001908152602001600020848154811061058857610587612b35565b5b906000526020600020906006020160050160006101000a81548160ff0219169083151502179055506105f0565b6040517f08c379a00000000000000000000000000000000000000000000000000000000081526004016105e790612bf6565b60405180910390fd5b505060016000819055505050565b60026000541415610644576040517f08c379a000000000000000000000000000000000000000000000000000000000815260040161063b90612b15565b60405180910390fd5b6002600081905550600060046000848152602001908152602001600020828154811061067357610672612b35565b5b90600052602060002090600602016040518060c001604052908160008201548152602001600182015481526020016002820160009054906101000a900473ffffffffffffffffffffffffffffffffffffffff1673ffffffffffffffffffffffffffffffffffffffff1673ffffffffffffffffffffffffffffffffffffffff1681526020016003820160009054906101000a900473ffffffffffffffffffffffffffffffffffffffff1673ffffffffffffffffffffffffffffffffffffffff1673ffffffffffffffffffffffffffffffffffffffff168152602001600482015481526020016005820160009054906101000a900460ff16151515158152505090506003600084815260200190815260200160002060070160009054906101000a900473ffffffffffffffffffffffffffffffffffffffff1673ffffffffffffffffffffffffffffffffffffffff163373ffffffffffffffffffffffffffffffffffffffff16146107e157600080fd5b8060a00151156107f057600080fd5b6003600084815260200190815260200160002060040160029054906101000a900460ff1661081d57600080fd5b60006108756003600086815260200190815260200160002060010160009054906101000a900473ffffffffffffffffffffffffffffffffffffffff166003600087815260200190815260200160002060020154611131565b905060006003600086815260200190815260200160002060040160026101000a81548160ff02191690831515021790555060016004600086815260200190815260200160002084815481106108cd576108cc612b35565b5b906000526020600020906006020160050160006101000a81548160ff0219169083151502179055506003600085815260200190815260200160002060010160009054906101000a900473ffffffffffffffffffffffffffffffffffffffff1673ffffffffffffffffffffffffffffffffffffffff166342842e0e30846060015160036000898152602001908152602001600020600201546040518463ffffffff1660e01b815260040161098293929190612c16565b600060405180830381600087803b15801561099c57600080fd5b505af11580156109b0573d6000803e3d6000fd5b505050506000826080015190506000606484608001516109d09190612cab565b905060005b8351811015610b1857600061271086608001518684815181106109fb576109fa612b35565b5b6020026020010151602001516bffffffffffffffffffffffff16610a1f9190612cdc565b610a299190612cab565b90506000858381518110610a4057610a3f612b35565b5b60200260200101516000015173ffffffffffffffffffffffffffffffffffffffff1682604051610a6f90612b95565b60006040518083038185875af1925050503d8060008114610aac576040519150601f19603f3d011682016040523d82523d6000602084013e610ab1565b606091505b5050905080610af5576040517f08c379a0000000000000000000000000000000000000000000000000000000008152600401610aec90612d82565b60405180910390fd5b8185610b019190612da2565b945050508080610b1090612dd6565b9150506109d5565b5060003373ffffffffffffffffffffffffffffffffffffffff168284610b3e9190612da2565b604051610b4a90612b95565b60006040518083038185875af1925050503d8060008114610b87576040519150601f19603f3d011682016040523d82523d6000602084013e610b8c565b606091505b5050905080610bd0576040517f08c379a0000000000000000000000000000000000000000000000000000000008152600401610bc790612e6b565b60405180910390fd5b6000600260009054906101000a900473ffffffffffffffffffffffffffffffffffffffff1673ffffffffffffffffffffffffffffffffffffffff1683604051610c1890612b95565b60006040518083038185875af1925050503d8060008114610c55576040519150601f19603f3d011682016040523d82523d6000602084013e610c5a565b606091505b5050905080610c9e576040517f08c379a0000000000000000000000000000000000000000000000000000000008152600401610c9590612ed7565b60405180910390fd5b7fc1a33fc6bb7dd982480f7d209db0c9ee0afb428b5f804be0268c066863032e4c8660800151604051610cd19190612ef7565b60405180910390a150505050505060016000819055505050565b3373ffffffffffffffffffffffffffffffffffffffff166003600083815260200190815260200160002060070160009054906101000a900473ffffffffffffffffffffffffffffffffffffffff1673ffffffffffffffffffffffffffffffffffffffff161415610d5a57600080fd5b6003600082815260200190815260200160002060040160029054906101000a900460ff16610d8757600080fd5b6003600082815260200190815260200160002060040160019054906101000a900460ff16610db457600080fd5b6003600082815260200190815260200160002060060154421115610dd757600080fd5b34606460036000848152602001908152602001600020600301546005610dfd9190612cdc565b610e079190612cab565b6003600084815260200190815260200160002060030154610e289190612f12565b1115610e69576040517f08c379a0000000000000000000000000000000000000000000000000000000008152600401610e6090612fda565b60405180910390fd5b60006040518060c00160405280600460008581526020019081526020016000208054905081526020018381526020016003600085815260200190815260200160002060070160009054906101000a900473ffffffffffffffffffffffffffffffffffffffff1673ffffffffffffffffffffffffffffffffffffffff1681526020013373ffffffffffffffffffffffffffffffffffffffff16815260200134815260200160001515815250905060046000838152602001908152602001600020819080600181540180825580915050600190039060005260206000209060060201600090919091909150600082015181600001556020820151816001015560408201518160020160006101000a81548173ffffffffffffffffffffffffffffffffffffffff021916908373ffffffffffffffffffffffffffffffffffffffff16021790555060608201518160030160006101000a81548173ffffffffffffffffffffffffffffffffffffffff021916908373ffffffffffffffffffffffffffffffffffffffff1602179055506080820151816004015560a08201518160050160006101000a81548160ff02191690831515021790555050503460036000848152602001908152602001600020600301819055507f6dfa77b86c3d87864e5b10df6b47557084e5534674ca734ebe53741276ce52d18160405161106a91906130a2565b60405180910390a15050565b60036020528060005260406000206000915090508060000154908060010160009054906101000a900473ffffffffffffffffffffffffffffffffffffffff16908060020154908060030154908060040160009054906101000a900460ff16908060040160019054906101000a900460ff16908060040160029054906101000a900460ff16908060050154908060060154908060070160009054906101000a900473ffffffffffffffffffffffffffffffffffffffff1690508a565b60608273ffffffffffffffffffffffffffffffffffffffff1663bb3bafd6836040518263ffffffff1660e01b815260040161116c9190612ef7565b600060405180830381865afa158015611189573d6000803e3d6000fd5b505050506040513d6000823e3d601f19601f820116820180604052508101906111b29190613232565b905092915050565b60026000541415611200576040517f08c379a00000000000000000000000000000000000000000000000000000000081526004016111f790612b15565b60405180910390fd5b600260008190555060006003600083815260200190815260200160002060405180610140016040529081600082015481526020016001820160009054906101000a900473ffffffffffffffffffffffffffffffffffffffff1673ffffffffffffffffffffffffffffffffffffffff1673ffffffffffffffffffffffffffffffffffffffff16815260200160028201548152602001600382015481526020016004820160009054906101000a900460ff161515151581526020016004820160019054906101000a900460ff161515151581526020016004820160029054906101000a900460ff1615151515815260200160058201548152602001600682015481526020016007820160009054906101000a900473ffffffffffffffffffffffffffffffffffffffff1673ffffffffffffffffffffffffffffffffffffffff1673ffffffffffffffffffffffffffffffffffffffff16815250509050600061136e82602001518360400151611131565b90508160c001516113b4576040517f08c379a00000000000000000000000000000000000000000000000000000000081526004016113ab906132c7565b60405180910390fd5b600073ffffffffffffffffffffffffffffffffffffffff163373ffffffffffffffffffffffffffffffffffffffff1614158015611422575081610120015173ffffffffffffffffffffffffffffffffffffffff163373ffffffffffffffffffffffffffffffffffffffff1614155b611461576040517f08c379a000000000000000000000000000000000000000000000000000000000815260040161145890613333565b60405180910390fd5b8160a001511561147057600080fd5b81606001513410156114b7576040517f08c379a00000000000000000000000000000000000000000000000000000000081526004016114ae9061339f565b60405180910390fd5b6114d3600360008581526020019081526020016000203361234a565b6000349050600034905060006064346114ec9190612cab565b905060005b84518110156116305760006127108487848151811061151357611512612b35565b5b6020026020010151602001516bffffffffffffffffffffffff166115379190612cdc565b6115419190612cab565b9050600086838151811061155857611557612b35565b5b60200260200101516000015173ffffffffffffffffffffffffffffffffffffffff168260405161158790612b95565b60006040518083038185875af1925050503d80600081146115c4576040519150601f19603f3d011682016040523d82523d6000602084013e6115c9565b606091505b505090508061160d576040517f08c379a00000000000000000000000000000000000000000000000000000000081526004016116049061340b565b60405180910390fd5b81866116199190612da2565b95505050808061162890612dd6565b9150506114f1565b50600085610120015173ffffffffffffffffffffffffffffffffffffffff16828561165b9190612da2565b60405161166790612b95565b60006040518083038185875af1925050503d80600081146116a4576040519150601f19603f3d011682016040523d82523d6000602084013e6116a9565b606091505b50509050806116ed576040517f08c379a00000000000000000000000000000000000000000000000000000000081526004016116e490612e6b565b60405180910390fd5b6000600260009054906101000a900473ffffffffffffffffffffffffffffffffffffffff1673ffffffffffffffffffffffffffffffffffffffff168360405161173590612b95565b60006040518083038185875af1925050503d8060008114611772576040519150601f19603f3d011682016040523d82523d6000602084013e611777565b606091505b50509050806117bb576040517f08c379a00000000000000000000000000000000000000000000000000000000081526004016117b290612ed7565b60405180910390fd5b866020015173ffffffffffffffffffffffffffffffffffffffff166342842e0e30338a604001516040518463ffffffff1660e01b815260040161180093929190612c16565b600060405180830381600087803b15801561181a57600080fd5b505af115801561182e573d6000803e3d6000fd5b5050505050505050505050600160008190555050565b6004602052816000526040600020818154811061186057600080fd5b9060005260206000209060060201600091509150508060000154908060010154908060020160009054906101000a900473ffffffffffffffffffffffffffffffffffffffff16908060030160009054906101000a900473ffffffffffffffffffffffffffffffffffffffff16908060040154908060050160009054906101000a900460ff16905086565b60026000541415611930576040517f08c379a000000000000000000000000000000000000000000000000000000000815260040161192790612b15565b60405180910390fd5b60026000819055506003600082815260200190815260200160002060070160009054906101000a900473ffffffffffffffffffffffffffffffffffffffff1673ffffffffffffffffffffffffffffffffffffffff163373ffffffffffffffffffffffffffffffffffffffff16146119dc576040517f08c379a00000000000000000000000000000000000000000000000000000000081526004016119d390613477565b60405180910390fd5b6003600082815260200190815260200160002060040160029054906101000a900460ff16611a3f576040517f08c379a0000000000000000000000000000000000000000000000000000000008152600401611a36906134e3565b60405180910390fd5b60006003600083815260200190815260200160002060040160026101000a81548160ff0219169083151502179055506003600082815260200190815260200160002060010160009054906101000a900473ffffffffffffffffffffffffffffffffffffffff1673ffffffffffffffffffffffffffffffffffffffff166342842e0e306003600085815260200190815260200160002060070160009054906101000a900473ffffffffffffffffffffffffffffffffffffffff1660036000868152602001908152602001600020600201546040518463ffffffff1660e01b8152600401611b2d93929190612c16565b600060405180830381600087803b158015611b4757600080fd5b505af1158015611b5b573d6000803e3d6000fd5b50505050600160008190555050565b83838173ffffffffffffffffffffffffffffffffffffffff16636352211e826040518263ffffffff1660e01b8152600401611ba59190612ef7565b602060405180830381865afa158015611bc2573d6000803e3d6000fd5b505050506040513d601f19601f82011682018060405250810190611be69190613518565b73ffffffffffffffffffffffffffffffffffffffff163373ffffffffffffffffffffffffffffffffffffffff1614611c53576040517f08c379a0000000000000000000000000000000000000000000000000000000008152600401611c4a90613591565b60405180910390fd5b60026000541415611c99576040517f08c379a0000000000000000000000000000000000000000000000000000000008152600401611c9090612b15565b60405180910390fd5b6002600081905550600073ffffffffffffffffffffffffffffffffffffffff168673ffffffffffffffffffffffffffffffffffffffff161415611cdb57600080fd5b611ce560016123e8565b8573ffffffffffffffffffffffffffffffffffffffff166342842e0e3330886040518463ffffffff1660e01b8152600401611d2293929190612c16565b600060405180830381600087803b158015611d3c57600080fd5b505af1158015611d50573d6000803e3d6000fd5b505050506000604051806101400160405280611d6c60016123fe565b81526020018873ffffffffffffffffffffffffffffffffffffffff1681526020018781526020018681526020016000151581526020016001151581526020016001151581526020014281526020018542611dc69190612f12565b81526020013373ffffffffffffffffffffffffffffffffffffffff1681525090508060036000611df660016123fe565b81526020019081526020016000206000820151816000015560208201518160010160006101000a81548173ffffffffffffffffffffffffffffffffffffffff021916908373ffffffffffffffffffffffffffffffffffffffff160217905550604082015181600201556060820151816003015560808201518160040160006101000a81548160ff02191690831515021790555060a08201518160040160016101000a81548160ff02191690831515021790555060c08201518160040160026101000a81548160ff02191690831515021790555060e0820151816005015561010082015181600601556101208201518160070160006101000a81548173ffffffffffffffffffffffffffffffffffffffff021916908373ffffffffffffffffffffffffffffffffffffffff1602179055509050507f2c28b1a4996f07ef4457782603fcee3454f1790eedb957cf72f54c35e12cb0b281611f5560016123fe565b604051611f6392919061367d565b60405180910390a1506001600081905550505050505050565b82828173ffffffffffffffffffffffffffffffffffffffff16636352211e826040518263ffffffff1660e01b8152600401611fb79190612ef7565b602060405180830381865afa158015611fd4573d6000803e3d6000fd5b505050506040513d601f19601f82011682018060405250810190611ff89190613518565b73ffffffffffffffffffffffffffffffffffffffff163373ffffffffffffffffffffffffffffffffffffffff1614612065576040517f08c379a000000000000000000000000000000000000000000000000000000000815260040161205c90613591565b60405180910390fd5b600260005414156120ab576040517f08c379a00000000000000000000000000000000000000000000000000000000081526004016120a290612b15565b60405180910390fd5b60026000819055506120bd60016123e8565b8473ffffffffffffffffffffffffffffffffffffffff166342842e0e3330876040518463ffffffff1660e01b81526004016120fa93929190612c16565b600060405180830381600087803b15801561211457600080fd5b505af1158015612128573d6000803e3d6000fd5b50505050600060405180610140016040528061214460016123fe565b81526020018773ffffffffffffffffffffffffffffffffffffffff16815260200186815260200185815260200160011515815260200160001515815260200160011515815260200160008152602001600081526020013373ffffffffffffffffffffffffffffffffffffffff16815250905080600360006121c560016123fe565b81526020019081526020016000206000820151816000015560208201518160010160006101000a81548173ffffffffffffffffffffffffffffffffffffffff021916908373ffffffffffffffffffffffffffffffffffffffff160217905550604082015181600201556060820151816003015560808201518160040160006101000a81548160ff02191690831515021790555060a08201518160040160016101000a81548160ff02191690831515021790555060c08201518160040160026101000a81548160ff02191690831515021790555060e0820151816005015561010082015181600601556101208201518160070160006101000a81548173ffffffffffffffffffffffffffffffffffffffff021916908373ffffffffffffffffffffffffffffffffffffffff1602179055509050507f2c28b1a4996f07ef4457782603fcee3454f1790eedb957cf72f54c35e12cb0b28161232460016123fe565b60405161233292919061367d565b60405180910390a15060016000819055505050505050565b808260070160006101000a81548173ffffffffffffffffffffffffffffffffffffffff021916908373ffffffffffffffffffffffffffffffffffffffff16021790555060008260040160026101000a81548160ff02191690831515021790555060008260040160006101000a81548160ff02191690831515021790555060008260040160016101000a81548160ff0219169083151502179055505050565b6001816000016000828254019250508190555050565b600081600001549050919050565b6000604051905090565b600080fd5b600080fd5b600073ffffffffffffffffffffffffffffffffffffffff82169050919050565b600061244b82612420565b9050919050565b61245b81612440565b811461246657600080fd5b50565b60008135905061247881612452565b92915050565b6000819050919050565b6124918161247e565b811461249c57600080fd5b50565b6000813590506124ae81612488565b92915050565b600080fd5b600080fd5b6000601f19601f8301169050919050565b7f4e487b7100000000000000000000000000000000000000000000000000000000600052604160045260246000fd5b612507826124be565b810181811067ffffffffffffffff82111715612526576125256124cf565b5b80604052505050565b600061253961240c565b905061254582826124fe565b919050565b600067ffffffffffffffff821115612565576125646124cf565b5b61256e826124be565b9050602081019050919050565b82818337600083830152505050565b600061259d6125988461254a565b61252f565b9050828152602081018484840111156125b9576125b86124b9565b5b6125c484828561257b565b509392505050565b600082601f8301126125e1576125e06124b4565b5b81356125f184826020860161258a565b91505092915050565b6000806000806080858703121561261457612613612416565b5b600061262287828801612469565b945050602061263387828801612469565b93505060406126448782880161249f565b925050606085013567ffffffffffffffff8111156126655761266461241b565b5b612671878288016125cc565b91505092959194509250565b60007fffffffff0000000000000000000000000000000000000000000000000000000082169050919050565b6126b28161267d565b82525050565b60006020820190506126cd60008301846126a9565b92915050565b600080604083850312156126ea576126e9612416565b5b60006126f88582860161249f565b92505060206127098582860161249f565b9150509250929050565b60006020828403121561272957612728612416565b5b60006127378482850161249f565b91505092915050565b6127498161247e565b82525050565b61275881612440565b82525050565b60008115159050919050565b6127738161275e565b82525050565b60006101408201905061278f600083018d612740565b61279c602083018c61274f565b6127a9604083018b612740565b6127b6606083018a612740565b6127c3608083018961276a565b6127d060a083018861276a565b6127dd60c083018761276a565b6127ea60e0830186612740565b6127f8610100830185612740565b61280661012083018461274f565b9b9a5050505050505050505050565b6000806040838503121561282c5761282b612416565b5b600061283a85828601612469565b925050602061284b8582860161249f565b9150509250929050565b600081519050919050565b600082825260208201905092915050565b6000819050602082019050919050565b600061288c82612420565b9050919050565b61289c81612881565b82525050565b60006bffffffffffffffffffffffff82169050919050565b6128c3816128a2565b82525050565b6040820160008201516128df6000850182612893565b5060208201516128f260208501826128ba565b50505050565b600061290483836128c9565b60408301905092915050565b6000602082019050919050565b600061292882612855565b6129328185612860565b935061293d83612871565b8060005b8381101561296e57815161295588826128f8565b975061296083612910565b925050600181019050612941565b5085935050505092915050565b60006020820190508181036000830152612995818461291d565b905092915050565b600060c0820190506129b26000830189612740565b6129bf6020830188612740565b6129cc604083018761274f565b6129d9606083018661274f565b6129e66080830185612740565b6129f360a083018461276a565b979650505050505050565b60008060008060808587031215612a1857612a17612416565b5b6000612a2687828801612469565b9450506020612a378782880161249f565b9350506040612a488782880161249f565b9250506060612a598782880161249f565b91505092959194509250565b600080600060608486031215612a7e57612a7d612416565b5b6000612a8c86828701612469565b9350506020612a9d8682870161249f565b9250506040612aae8682870161249f565b9150509250925092565b600082825260208201905092915050565b7f5265656e7472616e637947756172643a207265656e7472616e742063616c6c00600082015250565b6000612aff601f83612ab8565b9150612b0a82612ac9565b602082019050919050565b60006020820190508181036000830152612b2e81612af2565b9050919050565b7f4e487b7100000000000000000000000000000000000000000000000000000000600052603260045260246000fd5b600081905092915050565b50565b6000612b7f600083612b64565b9150612b8a82612b6f565b600082019050919050565b6000612ba082612b72565b9150819050919050565b7f4e6f204d6f6e6579206c65667421000000000000000000000000000000000000600082015250565b6000612be0600e83612ab8565b9150612beb82612baa565b602082019050919050565b60006020820190508181036000830152612c0f81612bd3565b9050919050565b6000606082019050612c2b600083018661274f565b612c38602083018561274f565b612c456040830184612740565b949350505050565b7f4e487b7100000000000000000000000000000000000000000000000000000000600052601260045260246000fd5b7f4e487b7100000000000000000000000000000000000000000000000000000000600052601160045260246000fd5b6000612cb68261247e565b9150612cc18361247e565b925082612cd157612cd0612c4d565b5b828204905092915050565b6000612ce78261247e565b9150612cf28361247e565b9250817fffffffffffffffffffffffffffffffffffffffffffffffffffffffffffffffff0483118215151615612d2b57612d2a612c7c565b5b828202905092915050565b7f526f79616c7479207472616e73666572206661696c6564000000000000000000600082015250565b6000612d6c601783612ab8565b9150612d7782612d36565b602082019050919050565b60006020820190508181036000830152612d9b81612d5f565b9050919050565b6000612dad8261247e565b9150612db88361247e565b925082821015612dcb57612dca612c7c565b5b828203905092915050565b6000612de18261247e565b91507fffffffffffffffffffffffffffffffffffffffffffffffffffffffffffffffff821415612e1457612e13612c7c565b5b600182019050919050565b7f5472616e73666572206661696c65640000000000000000000000000000000000600082015250565b6000612e55600f83612ab8565b9150612e6082612e1f565b602082019050919050565b60006020820190508181036000830152612e8481612e48565b9050919050565b7f466565205472616e73666572206661696c656400000000000000000000000000600082015250565b6000612ec1601383612ab8565b9150612ecc82612e8b565b602082019050919050565b60006020820190508181036000830152612ef081612eb4565b9050919050565b6000602082019050612f0c6000830184612740565b92915050565b6000612f1d8261247e565b9150612f288361247e565b9250827fffffffffffffffffffffffffffffffffffffffffffffffffffffffffffffffff03821115612f5d57612f5c612c7c565b5b828201905092915050565b7f4269642073686f756c64206265206d6f7265207468616e203525206f6620637560008201527f7272656e74206269640000000000000000000000000000000000000000000000602082015250565b6000612fc4602983612ab8565b9150612fcf82612f68565b604082019050919050565b60006020820190508181036000830152612ff381612fb7565b9050919050565b6130038161247e565b82525050565b61301281612440565b82525050565b6130218161275e565b82525050565b60c08201600082015161303d6000850182612ffa565b5060208201516130506020850182612ffa565b5060408201516130636040850182613009565b5060608201516130766060850182613009565b5060808201516130896080850182612ffa565b5060a082015161309c60a0850182613018565b50505050565b600060c0820190506130b76000830184613027565b92915050565b600067ffffffffffffffff8211156130d8576130d76124cf565b5b602082029050602081019050919050565b600080fd5b600080fd5b6130fc81612881565b811461310757600080fd5b50565b600081519050613119816130f3565b92915050565b613128816128a2565b811461313357600080fd5b50565b6000815190506131458161311f565b92915050565b600060408284031215613161576131606130ee565b5b61316b604061252f565b9050600061317b8482850161310a565b600083015250602061318f84828501613136565b60208301525092915050565b60006131ae6131a9846130bd565b61252f565b905080838252602082019050604084028301858111156131d1576131d06130e9565b5b835b818110156131fa57806131e6888261314b565b8452602084019350506040810190506131d3565b5050509392505050565b600082601f830112613219576132186124b4565b5b815161322984826020860161319b565b91505092915050565b60006020828403121561324857613247612416565b5b600082015167ffffffffffffffff8111156132665761326561241b565b5b61327284828501613204565b91505092915050565b7f746f6b656e206d757374206265206f6e2073616c650000000000000000000000600082015250565b60006132b1601583612ab8565b91506132bc8261327b565b602082019050919050565b600060208201905081810360008301526132e0816132a4565b9050919050565b7f696e76616c696420616464726573730000000000000000000000000000000000600082015250565b600061331d600f83612ab8565b9150613328826132e7565b602082019050919050565b6000602082019050818103600083015261334c81613310565b9050919050565b7f76616c7565206c657373207468616e2070726963650000000000000000000000600082015250565b6000613389601583612ab8565b915061339482613353565b602082019050919050565b600060208201905081810360008301526133b88161337c565b9050919050565b7f526f79616c7479205472616e73666572206661696c6564000000000000000000600082015250565b60006133f5601783612ab8565b9150613400826133bf565b602082019050919050565b60006020820190508181036000830152613424816133e8565b9050919050565b7f4f6e6c79206f776e65722063616e2063616e63656c2073616c65000000000000600082015250565b6000613461601a83612ab8565b915061346c8261342b565b602082019050919050565b6000602082019050818103600083015261349081613454565b9050919050565b7f546f6b656e206e6f74206f6e2073616c65000000000000000000000000000000600082015250565b60006134cd601183612ab8565b91506134d882613497565b602082019050919050565b600060208201905081810360008301526134fc816134c0565b9050919050565b60008151905061351281612452565b92915050565b60006020828403121561352e5761352d612416565b5b600061353c84828501613503565b91505092915050565b7f4f6e6c7920746f6b656e206f776e65722063616e20707574206f6e2073616c65600082015250565b600061357b602083612ab8565b915061358682613545565b602082019050919050565b600060208201905081810360008301526135aa8161356e565b9050919050565b610140820160008201516135c86000850182612ffa565b5060208201516135db6020850182613009565b5060408201516135ee6040850182612ffa565b5060608201516136016060850182612ffa565b5060808201516136146080850182613018565b5060a082015161362760a0850182613018565b5060c082015161363a60c0850182613018565b5060e082015161364d60e0850182612ffa565b50610100820151613662610100850182612ffa565b50610120820151613677610120850182613009565b50505050565b60006101608201905061369360008301856135b1565b6136a1610140830184612740565b939250505056fea264697066735822122050cc5366ff4e89012a1a1e98450b74edfd709014540c5ae61a25e3496ec53e4b64736f6c634300080b0033",
  "immutableReferences": {},
  "source": "// SPDX-License-Identifier: MIT\npragma solidity >=0.4.22 <0.9.0;\n\nimport \"@openzeppelin/contracts/token/ERC721/utils/ERC721Holder.sol\";\nimport \"@openzeppelin/contracts/token/ERC721/ERC721.sol\";\nimport \"@openzeppelin/contracts/access/Ownable.sol\";\nimport \"@openzeppelin/contracts/security/ReentrancyGuard.sol\";\nimport \"@openzeppelin/contracts/utils/Counters.sol\";\nimport \"./piNFT.sol\";\nimport \"./utils/LibShare.sol\";\n\ncontract piMarket is ERC721Holder, ReentrancyGuard {\n    using Counters for Counters.Counter;\n    Counters.Counter internal _saleIdCounter;\n\n    address internal feeAddress;\n    // uint256 internal feePercent;\n\n    struct TokenMeta {\n        uint256 saleId;\n        address tokenContractAddress;\n        uint256 tokenId;\n        uint256 price;\n        bool directSale;\n        bool bidSale;\n        bool status;\n        uint256 bidStartTime;\n        uint256 bidEndTime;\n        address currentOwner;\n    }\n\n    struct BidOrder {\n        uint256 bidId;\n        uint256 saleId;\n        address sellerAddress;\n        address buyerAddress;\n        uint256 price;\n        bool withdrawn;\n    }\n\n\n    mapping(uint256 => TokenMeta) public _tokenMeta;\n    mapping(uint256 => BidOrder[]) public Bids;\n\n    event TokenMetaReturn(TokenMeta data, uint256 id);\n    event BidOrderReturn(BidOrder bid);\n    event BidExecuted(uint256 price);\n\n    constructor(address _feeAddress) {\n        require(_feeAddress != address(0), 'Fee address cannot be zero');\n        feeAddress = _feeAddress;\n        // feePercent = _feePercent;\n    }\n\n    modifier onlyOwnerOfToken(address _piNFTAddress, uint256 _tokenId) {\n        require(msg.sender == ERC721(_piNFTAddress).ownerOf(_tokenId), 'Only token owner can put on sale');\n        _;\n    }\n\n    function sellNFT(address _piNFTAddress, uint256 _tokenId, uint256 _price) external onlyOwnerOfToken(_piNFTAddress, _tokenId)  nonReentrant {\n\n        _saleIdCounter.increment();\n\n        //needs approval on frontend\n        ERC721(_piNFTAddress).safeTransferFrom(\n        msg.sender,\n        address(this),\n        _tokenId\n        );\n\n        TokenMeta memory meta = TokenMeta(\n            _saleIdCounter.current(),\n            _piNFTAddress,\n            _tokenId,\n            _price,\n            true,\n            false,\n            true,\n            0,\n            0,\n            msg.sender\n        );\n\n        _tokenMeta[_saleIdCounter.current()] = meta;\n\n        emit TokenMetaReturn(meta, _saleIdCounter.current());\n    }\n\n    function retrieveRoyalty(\n        address _contractAddress,\n        uint256 _tokenId\n    ) public view returns (LibShare.Share[] memory) {\n        return piNFT(_contractAddress).getRoyalties(_tokenId);\n    }\n\n    function BuyNFT(uint256 _saleId) external payable nonReentrant {\n        TokenMeta memory meta = _tokenMeta[_saleId];\n\n        LibShare.Share[] memory royalties = retrieveRoyalty(\n            meta.tokenContractAddress,\n            meta.tokenId\n        );\n\n        require(meta.status, 'token must be on sale');\n        require(msg.sender != address(0) && msg.sender != meta.currentOwner, 'invalid address');\n        require(!meta.bidSale);\n        require(msg.value >= meta.price, 'value less than price');\n\n        transfer(_tokenMeta[_saleId], msg.sender);\n\n        uint256 sum = msg.value;\n        uint256 val = msg.value;\n        uint256 fee = msg.value / 100;\n\n        for (uint256 i = 0; i < royalties.length; i++) {\n            uint256 amount = (royalties[i].value * val) / 10000;\n            // address payable receiver = royalties[i].account;\n            (bool royalSuccess, ) = payable(royalties[i].account).call{ value: amount }(\"\");\n            require(royalSuccess, \"Royalty Transfer failed\");\n            sum = sum - amount;\n        }\n\n        (bool isSuccess, ) = payable(meta.currentOwner).call{ value: (sum - fee) }(\"\");\n        require(isSuccess, \"Transfer failed\");\n        (bool feeSuccess, ) = payable(feeAddress).call{ value: fee }(\"\");\n        require(feeSuccess, \"Fee Transfer failed\");\n        ERC721(meta.tokenContractAddress).safeTransferFrom(\n        address(this),\n        msg.sender,\n        meta.tokenId\n        );\n    }\n\n    function cancelSale(uint256 _saleId) external nonReentrant {\n    require(msg.sender == _tokenMeta[_saleId].currentOwner, 'Only owner can cancel sale');\n    require(_tokenMeta[_saleId].status, 'Token not on sale');\n\n    _tokenMeta[_saleId].status = false;\n    ERC721(_tokenMeta[_saleId].tokenContractAddress).safeTransferFrom(\n      address(this),\n      _tokenMeta[_saleId].currentOwner,\n      _tokenMeta[_saleId].tokenId\n    );\n  }\n\n    function SellNFT_byBid(\n    address _piNFTAddress,\n    uint256 _tokenId,\n    uint256 _price,\n    uint256 _bidTime\n  ) external onlyOwnerOfToken(_piNFTAddress, _tokenId) nonReentrant {\n    require(_piNFTAddress != address(0));\n    _saleIdCounter.increment();\n\n    //needs approval on frontend\n    ERC721(_piNFTAddress).safeTransferFrom(\n      msg.sender,\n      address(this),\n      _tokenId\n    );\n\n    TokenMeta memory meta = TokenMeta(\n      _saleIdCounter.current(),\n      _piNFTAddress,\n      _tokenId,\n      _price,\n      false,\n      true,\n      true,\n      block.timestamp,\n      block.timestamp + _bidTime,\n      msg.sender\n    );\n\n    _tokenMeta[_saleIdCounter.current()] = meta;\n\n    emit TokenMetaReturn(meta, _saleIdCounter.current());\n  }\n\n  function Bid(uint256 _saleId) external payable {\n    require(_tokenMeta[_saleId].currentOwner != msg.sender);\n    require(_tokenMeta[_saleId].status);\n    require(_tokenMeta[_saleId].bidSale);\n    require(block.timestamp <= _tokenMeta[_saleId].bidEndTime);\n    require(\n      _tokenMeta[_saleId].price + ((5 * _tokenMeta[_saleId].price) / 100) <=\n        msg.value,\n        'Bid should be more than 5% of current bid'\n    );\n    //  require(_timeOfAuction[_saleId] >= block.timestamp,\"Auction Over\");\n\n    BidOrder memory bid = BidOrder(\n      Bids[_saleId].length,\n      _saleId,\n      _tokenMeta[_saleId].currentOwner,\n      msg.sender,\n      msg.value,\n      false\n    );\n    Bids[_saleId].push(bid);\n    _tokenMeta[_saleId].price = msg.value;\n\n    emit BidOrderReturn(bid);\n\n    }\n\n    function executeBidOrder(uint256 _saleId, uint256 _bidOrderID)\n    external\n    nonReentrant\n  {\n    BidOrder memory bids = Bids[_saleId][_bidOrderID];\n    require(msg.sender == _tokenMeta[_saleId].currentOwner);\n    require(!bids.withdrawn);\n    require(_tokenMeta[_saleId].status);\n\n    LibShare.Share[] memory royalties = retrieveRoyalty(\n      _tokenMeta[_saleId].tokenContractAddress,\n      _tokenMeta[_saleId].tokenId\n    );\n\n    _tokenMeta[_saleId].status = false;\n    Bids[_saleId][_bidOrderID].withdrawn = true;\n\n    ERC721(_tokenMeta[_saleId].tokenContractAddress).safeTransferFrom(\n      address(this),\n      bids.buyerAddress,\n      _tokenMeta[_saleId].tokenId\n    );\n\n    uint256 sum = bids.price;\n    uint256 fee = bids.price / 100;\n\n    for (uint256 i = 0; i < royalties.length; i++) {\n      uint256 amount = (royalties[i].value * bids.price) /\n        10000;\n      // address payable receiver = royalties[i].account;\n      (bool royalSuccess, ) = payable(royalties[i].account).call{ value: amount }(\"\");\n      require(royalSuccess, \"Royalty transfer failed\");\n      sum = sum - amount;\n    }\n\n    (bool isSuccess, ) = payable(msg.sender).call{ value: (sum - fee) }(\"\");\n    require(isSuccess, \"Transfer failed\");\n    (bool feeSuccess, ) = payable(feeAddress).call{ value: fee }(\"\");\n    require(feeSuccess, \"Fee Transfer failed\");\n\n    emit BidExecuted(bids.price);\n\n  }\n\n    function withdrawBidMoney(uint256 _saleId, uint256 _bidId)\n    external\n    nonReentrant\n  {\n    require(msg.sender != _tokenMeta[_saleId].currentOwner);\n    // BidOrder[] memory bids = Bids[_tokenId];\n    BidOrder memory bids = Bids[_saleId][_bidId];\n    require(bids.buyerAddress == msg.sender);\n    require(!bids.withdrawn);\n    (bool success, ) = payable(msg.sender).call{\n      value: bids.price\n    }(\"\");\n    if (success) {\n      Bids[_saleId][_bidId].withdrawn = true;\n    } else {\n      revert(\"No Money left!\");\n    }\n  }\n\n    function transfer(TokenMeta storage token, address _to ) internal{\n        token.currentOwner = _to;\n        token.status = false;\n        token.directSale = false ;\n        token.bidSale = false ;\n\n    }\n}",
  "sourcePath": "/Users/parv/Desktop/Pandora/piNFTOfficial/aconomy-contract/contracts/piMarket.sol",
  "compiler": {
    "name": "solc",
    "version": "0.8.11+commit.d7f03943.Emscripten.clang"
  },
  "schemaVersion": "3.4.4",
  "updatedAt": "2022-07-07T11:59:15.672Z",
  "networkType": "ethereum",
  "devdoc": {
    "kind": "dev",
    "methods": {
      "onERC721Received(address,address,uint256,bytes)": {
        "details": "See {IERC721Receiver-onERC721Received}. Always returns `IERC721Receiver.onERC721Received.selector`."
      }
    },
    "version": 1
  },
  "userdoc": {
    "kind": "user",
    "methods": {},
    "version": 1
  }
}