{
  "contractName": "piNFT",
  "abi": [
    {
      "inputs": [
        {
          "internalType": "string",
          "name": "_name",
          "type": "string"
        },
        {
          "internalType": "string",
          "name": "_symbol",
          "type": "string"
        }
      ],
      "stateMutability": "nonpayable",
      "type": "constructor"
    },
    {
      "anonymous": false,
      "inputs": [
        {
          "indexed": true,
          "internalType": "address",
          "name": "owner",
          "type": "address"
        },
        {
          "indexed": true,
          "internalType": "address",
          "name": "approved",
          "type": "address"
        },
        {
          "indexed": true,
          "internalType": "uint256",
          "name": "tokenId",
          "type": "uint256"
        }
      ],
      "name": "Approval",
      "type": "event"
    },
    {
      "anonymous": false,
      "inputs": [
        {
          "indexed": true,
          "internalType": "address",
          "name": "owner",
          "type": "address"
        },
        {
          "indexed": true,
          "internalType": "address",
          "name": "operator",
          "type": "address"
        },
        {
          "indexed": false,
          "internalType": "bool",
          "name": "approved",
          "type": "bool"
        }
      ],
      "name": "ApprovalForAll",
      "type": "event"
    },
    {
      "anonymous": false,
      "inputs": [
        {
          "indexed": true,
          "internalType": "address",
          "name": "_from",
          "type": "address"
        },
        {
          "indexed": true,
          "internalType": "uint256",
          "name": "_tokenId",
          "type": "uint256"
        },
        {
          "indexed": true,
          "internalType": "address",
          "name": "_erc20Contract",
          "type": "address"
        },
        {
          "indexed": false,
          "internalType": "uint256",
          "name": "_value",
          "type": "uint256"
        }
      ],
      "name": "ReceivedERC20",
      "type": "event"
    },
    {
      "anonymous": false,
      "inputs": [
        {
          "indexed": true,
          "internalType": "uint256",
          "name": "tokenId",
          "type": "uint256"
        },
        {
          "components": [
            {
              "internalType": "address payable",
              "name": "account",
              "type": "address"
            },
            {
              "internalType": "uint96",
              "name": "value",
              "type": "uint96"
            }
          ],
          "indexed": true,
          "internalType": "struct LibShare.Share[]",
          "name": "royalties",
          "type": "tuple[]"
        }
      ],
      "name": "RoyaltiesSetForTokenId",
      "type": "event"
    },
    {
      "anonymous": false,
      "inputs": [
        {
          "indexed": true,
          "internalType": "address",
          "name": "from",
          "type": "address"
        },
        {
          "indexed": true,
          "internalType": "address",
          "name": "to",
          "type": "address"
        },
        {
          "indexed": true,
          "internalType": "uint256",
          "name": "tokenId",
          "type": "uint256"
        }
      ],
      "name": "Transfer",
      "type": "event"
    },
    {
      "anonymous": false,
      "inputs": [
        {
          "indexed": true,
          "internalType": "uint256",
          "name": "_tokenId",
          "type": "uint256"
        },
        {
          "indexed": true,
          "internalType": "address",
          "name": "_to",
          "type": "address"
        },
        {
          "indexed": true,
          "internalType": "address",
          "name": "_erc20Contract",
          "type": "address"
        },
        {
          "indexed": false,
          "internalType": "uint256",
          "name": "_value",
          "type": "uint256"
        }
      ],
      "name": "TransferERC20",
      "type": "event"
    },
    {
      "inputs": [
        {
          "internalType": "address",
          "name": "to",
          "type": "address"
        },
        {
          "internalType": "uint256",
          "name": "tokenId",
          "type": "uint256"
        }
      ],
      "name": "approve",
      "outputs": [],
      "stateMutability": "nonpayable",
      "type": "function"
    },
    {
      "inputs": [
        {
          "internalType": "address",
          "name": "owner",
          "type": "address"
        }
      ],
      "name": "balanceOf",
      "outputs": [
        {
          "internalType": "uint256",
          "name": "",
          "type": "uint256"
        }
      ],
      "stateMutability": "view",
      "type": "function",
      "constant": true
    },
    {
      "inputs": [
        {
          "internalType": "uint256",
          "name": "tokenId",
          "type": "uint256"
        }
      ],
      "name": "getApproved",
      "outputs": [
        {
          "internalType": "address",
          "name": "",
          "type": "address"
        }
      ],
      "stateMutability": "view",
      "type": "function",
      "constant": true
    },
    {
      "inputs": [
        {
          "internalType": "address",
          "name": "owner",
          "type": "address"
        },
        {
          "internalType": "address",
          "name": "operator",
          "type": "address"
        }
      ],
      "name": "isApprovedForAll",
      "outputs": [
        {
          "internalType": "bool",
          "name": "",
          "type": "bool"
        }
      ],
      "stateMutability": "view",
      "type": "function",
      "constant": true
    },
    {
      "inputs": [],
      "name": "name",
      "outputs": [
        {
          "internalType": "string",
          "name": "",
          "type": "string"
        }
      ],
      "stateMutability": "view",
      "type": "function",
      "constant": true
    },
    {
      "inputs": [
        {
          "internalType": "uint256",
          "name": "tokenId",
          "type": "uint256"
        }
      ],
      "name": "ownerOf",
      "outputs": [
        {
          "internalType": "address",
          "name": "",
          "type": "address"
        }
      ],
      "stateMutability": "view",
      "type": "function",
      "constant": true
    },
    {
      "inputs": [
        {
          "internalType": "uint256",
          "name": "",
          "type": "uint256"
        },
        {
          "internalType": "uint256",
          "name": "",
          "type": "uint256"
        }
      ],
      "name": "royaltiesByTokenId",
      "outputs": [
        {
          "internalType": "address payable",
          "name": "account",
          "type": "address"
        },
        {
          "internalType": "uint96",
          "name": "value",
          "type": "uint96"
        }
      ],
      "stateMutability": "view",
      "type": "function",
      "constant": true
    },
    {
      "inputs": [
        {
          "internalType": "address",
          "name": "from",
          "type": "address"
        },
        {
          "internalType": "address",
          "name": "to",
          "type": "address"
        },
        {
          "internalType": "uint256",
          "name": "tokenId",
          "type": "uint256"
        }
      ],
      "name": "safeTransferFrom",
      "outputs": [],
      "stateMutability": "nonpayable",
      "type": "function"
    },
    {
      "inputs": [
        {
          "internalType": "address",
          "name": "from",
          "type": "address"
        },
        {
          "internalType": "address",
          "name": "to",
          "type": "address"
        },
        {
          "internalType": "uint256",
          "name": "tokenId",
          "type": "uint256"
        },
        {
          "internalType": "bytes",
          "name": "_data",
          "type": "bytes"
        }
      ],
      "name": "safeTransferFrom",
      "outputs": [],
      "stateMutability": "nonpayable",
      "type": "function"
    },
    {
      "inputs": [
        {
          "internalType": "address",
          "name": "operator",
          "type": "address"
        },
        {
          "internalType": "bool",
          "name": "approved",
          "type": "bool"
        }
      ],
      "name": "setApprovalForAll",
      "outputs": [],
      "stateMutability": "nonpayable",
      "type": "function"
    },
    {
      "inputs": [
        {
          "internalType": "bytes4",
          "name": "interfaceId",
          "type": "bytes4"
        }
      ],
      "name": "supportsInterface",
      "outputs": [
        {
          "internalType": "bool",
          "name": "",
          "type": "bool"
        }
      ],
      "stateMutability": "view",
      "type": "function",
      "constant": true
    },
    {
      "inputs": [],
      "name": "symbol",
      "outputs": [
        {
          "internalType": "string",
          "name": "",
          "type": "string"
        }
      ],
      "stateMutability": "view",
      "type": "function",
      "constant": true
    },
    {
      "inputs": [
        {
          "internalType": "uint256",
          "name": "tokenId",
          "type": "uint256"
        }
      ],
      "name": "tokenURI",
      "outputs": [
        {
          "internalType": "string",
          "name": "",
          "type": "string"
        }
      ],
      "stateMutability": "view",
      "type": "function",
      "constant": true
    },
    {
      "inputs": [
        {
          "internalType": "address",
          "name": "from",
          "type": "address"
        },
        {
          "internalType": "address",
          "name": "to",
          "type": "address"
        },
        {
          "internalType": "uint256",
          "name": "tokenId",
          "type": "uint256"
        }
      ],
      "name": "transferFrom",
      "outputs": [],
      "stateMutability": "nonpayable",
      "type": "function"
    },
    {
      "inputs": [
        {
          "internalType": "address",
          "name": "_to",
          "type": "address"
        },
        {
          "internalType": "string",
          "name": "_uri",
          "type": "string"
        },
        {
          "components": [
            {
              "internalType": "address payable",
              "name": "account",
              "type": "address"
            },
            {
              "internalType": "uint96",
              "name": "value",
              "type": "uint96"
            }
          ],
          "internalType": "struct LibShare.Share[]",
          "name": "royalties",
          "type": "tuple[]"
        }
      ],
      "name": "mintNFT",
      "outputs": [
        {
          "internalType": "uint256",
          "name": "",
          "type": "uint256"
        }
      ],
      "stateMutability": "nonpayable",
      "type": "function"
    },
    {
      "inputs": [
        {
          "internalType": "uint256",
          "name": "_tokenId",
          "type": "uint256"
        }
      ],
      "name": "getRoyalties",
      "outputs": [
        {
          "components": [
            {
              "internalType": "address payable",
              "name": "account",
              "type": "address"
            },
            {
              "internalType": "uint96",
              "name": "value",
              "type": "uint96"
            }
          ],
          "internalType": "struct LibShare.Share[]",
          "name": "",
          "type": "tuple[]"
        }
      ],
      "stateMutability": "view",
      "type": "function",
      "constant": true
    },
    {
      "inputs": [
        {
          "internalType": "address",
          "name": "_from",
          "type": "address"
        },
        {
          "internalType": "uint256",
          "name": "_tokenId",
          "type": "uint256"
        },
        {
          "internalType": "address",
          "name": "_erc20Contract",
          "type": "address"
        },
        {
          "internalType": "uint256",
          "name": "_value",
          "type": "uint256"
        }
      ],
      "name": "addERC20",
      "outputs": [],
      "stateMutability": "nonpayable",
      "type": "function"
    },
    {
      "inputs": [
        {
          "internalType": "uint256",
          "name": "_tokenId",
          "type": "uint256"
        },
        {
          "internalType": "address",
          "name": "_to",
          "type": "address"
        },
        {
          "internalType": "address",
          "name": "_erc20Contract",
          "type": "address"
        },
        {
          "internalType": "uint256",
          "name": "_value",
          "type": "uint256"
        }
      ],
      "name": "transferERC20",
      "outputs": [],
      "stateMutability": "nonpayable",
      "type": "function"
    },
    {
      "inputs": [
        {
          "internalType": "uint256",
          "name": "_tokenId",
          "type": "uint256"
        },
        {
          "internalType": "address",
          "name": "_erc20Address",
          "type": "address"
        }
      ],
      "name": "viewBalance",
      "outputs": [
        {
          "internalType": "uint256",
          "name": "",
          "type": "uint256"
        }
      ],
      "stateMutability": "view",
      "type": "function",
      "constant": true
    }
  ],
  "bytecode": "0x60806040523480156200001157600080fd5b5060405162004ae138038062004ae18339818101604052810190620000379190620002c2565b818181600090805190602001906200005192919062000075565b5080600190805190602001906200006a92919062000075565b5050505050620003ac565b828054620000839062000376565b90600052602060002090601f016020900481019282620000a75760008555620000f3565b82601f10620000c257805160ff1916838001178555620000f3565b82800160010185558215620000f3579182015b82811115620000f2578251825591602001919060010190620000d5565b5b50905062000102919062000106565b5090565b5b808211156200012157600081600090555060010162000107565b5090565b6000604051905090565b600080fd5b600080fd5b600080fd5b600080fd5b6000601f19601f8301169050919050565b7f4e487b7100000000000000000000000000000000000000000000000000000000600052604160045260246000fd5b6200018e8262000143565b810181811067ffffffffffffffff82111715620001b057620001af62000154565b5b80604052505050565b6000620001c562000125565b9050620001d3828262000183565b919050565b600067ffffffffffffffff821115620001f657620001f562000154565b5b620002018262000143565b9050602081019050919050565b60005b838110156200022e57808201518184015260208101905062000211565b838111156200023e576000848401525b50505050565b60006200025b6200025584620001d8565b620001b9565b9050828152602081018484840111156200027a57620002796200013e565b5b620002878482856200020e565b509392505050565b600082601f830112620002a757620002a662000139565b5b8151620002b984826020860162000244565b91505092915050565b60008060408385031215620002dc57620002db6200012f565b5b600083015167ffffffffffffffff811115620002fd57620002fc62000134565b5b6200030b858286016200028f565b925050602083015167ffffffffffffffff8111156200032f576200032e62000134565b5b6200033d858286016200028f565b9150509250929050565b7f4e487b7100000000000000000000000000000000000000000000000000000000600052602260045260246000fd5b600060028204905060018216806200038f57607f821691505b60208210811415620003a657620003a562000347565b5b50919050565b61472580620003bc6000396000f3fe608060405234801561001057600080fd5b50600436106101215760003560e01c8063830ef41b116100ad578063c87b56dd11610071578063c87b56dd14610316578063d51f299d14610346578063e985e9c514610376578063ee53b6a9146103a6578063fb2ef4a3146103d657610121565b8063830ef41b1461027457806395d89b4114610290578063a22cb465146102ae578063b88d4fde146102ca578063bb3bafd6146102e657610121565b806323b872dd116100f457806323b872dd146101c05780632b32c03b146101dc57806342842e0e146101f85780636352211e1461021457806370a082311461024457610121565b806301ffc9a71461012657806306fdde0314610156578063081812fc14610174578063095ea7b3146101a4575b600080fd5b610140600480360381019061013b919061299e565b610407565b60405161014d91906129e6565b60405180910390f35b61015e6104e9565b60405161016b9190612a9a565b60405180910390f35b61018e60048036038101906101899190612af2565b61057b565b60405161019b9190612b60565b60405180910390f35b6101be60048036038101906101b99190612ba7565b610600565b005b6101da60048036038101906101d59190612be7565b610718565b005b6101f660048036038101906101f19190612c3a565b610778565b005b610212600480360381019061020d9190612be7565b6108b7565b005b61022e60048036038101906102299190612af2565b6108d7565b60405161023b9190612b60565b60405180910390f35b61025e60048036038101906102599190612ca1565b610989565b60405161026b9190612cdd565b60405180910390f35b61028e60048036038101906102899190612cf8565b610a41565b005b610298610c61565b6040516102a59190612a9a565b60405180910390f35b6102c860048036038101906102c39190612d8b565b610cf3565b005b6102e460048036038101906102df9190612f00565b610d09565b005b61030060048036038101906102fb9190612af2565b610d6b565b60405161030d91906130a9565b60405180910390f35b610330600480360381019061032b9190612af2565b610e6d565b60405161033d9190612a9a565b60405180910390f35b610360600480360381019061035b91906130cb565b610fbf565b60405161036d9190612cdd565b60405180910390f35b610390600480360381019061038b919061310b565b61101a565b60405161039d91906129e6565b60405180910390f35b6103c060048036038101906103bb9190613361565b6110ae565b6040516103cd9190612cdd565b60405180910390f35b6103f060048036038101906103eb91906133ec565b6110f0565b6040516103fe92919061344a565b60405180910390f35b60007f80ac58cd000000000000000000000000000000000000000000000000000000007bffffffffffffffffffffffffffffffffffffffffffffffffffffffff1916827bffffffffffffffffffffffffffffffffffffffffffffffffffffffff191614806104d257507f5b5e139f000000000000000000000000000000000000000000000000000000007bffffffffffffffffffffffffffffffffffffffffffffffffffffffff1916827bffffffffffffffffffffffffffffffffffffffffffffffffffffffff1916145b806104e257506104e182611165565b5b9050919050565b6060600080546104f8906134a2565b80601f0160208091040260200160405190810160405280929190818152602001828054610524906134a2565b80156105715780601f1061054657610100808354040283529160200191610571565b820191906000526020600020905b81548152906001019060200180831161055457829003601f168201915b5050505050905090565b6000610586826111cf565b6105c5576040517f08c379a00000000000000000000000000000000000000000000000000000000081526004016105bc90613546565b60405180910390fd5b6004600083815260200190815260200160002060009054906101000a900473ffffffffffffffffffffffffffffffffffffffff169050919050565b600061060b826108d7565b90508073ffffffffffffffffffffffffffffffffffffffff168373ffffffffffffffffffffffffffffffffffffffff16141561067c576040517f08c379a0000000000000000000000000000000000000000000000000000000008152600401610673906135d8565b60405180910390fd5b8073ffffffffffffffffffffffffffffffffffffffff1661069b61123b565b73ffffffffffffffffffffffffffffffffffffffff1614806106ca57506106c9816106c461123b565b61101a565b5b610709576040517f08c379a00000000000000000000000000000000000000000000000000000000081526004016107009061366a565b60405180910390fd5b6107138383611243565b505050565b61072961072361123b565b826112fc565b610768576040517f08c379a000000000000000000000000000000000000000000000000000000000815260040161075f906136fc565b60405180910390fd5b6107738383836113da565b505050565b3373ffffffffffffffffffffffffffffffffffffffff168473ffffffffffffffffffffffffffffffffffffffff16146107e6576040517f08c379a00000000000000000000000000000000000000000000000000000000081526004016107dd90613768565b60405180910390fd5b6107f284848484611641565b8173ffffffffffffffffffffffffffffffffffffffff166323b872dd8530846040518463ffffffff1660e01b815260040161082f93929190613788565b6020604051808303816000875af115801561084e573d6000803e3d6000fd5b505050506040513d601f19601f8201168201806040525081019061087291906137d4565b6108b1576040517f08c379a00000000000000000000000000000000000000000000000000000000081526004016108a89061384d565b60405180910390fd5b50505050565b6108d283838360405180602001604052806000815250610d09565b505050565b6000806002600084815260200190815260200160002060009054906101000a900473ffffffffffffffffffffffffffffffffffffffff169050600073ffffffffffffffffffffffffffffffffffffffff168173ffffffffffffffffffffffffffffffffffffffff161415610980576040517f08c379a0000000000000000000000000000000000000000000000000000000008152600401610977906138df565b60405180910390fd5b80915050919050565b60008073ffffffffffffffffffffffffffffffffffffffff168273ffffffffffffffffffffffffffffffffffffffff1614156109fa576040517f08c379a00000000000000000000000000000000000000000000000000000000081526004016109f190613971565b60405180910390fd5b600360008373ffffffffffffffffffffffffffffffffffffffff1673ffffffffffffffffffffffffffffffffffffffff168152602001908152602001600020549050919050565b600073ffffffffffffffffffffffffffffffffffffffff168373ffffffffffffffffffffffffffffffffffffffff161415610ab1576040517f08c379a0000000000000000000000000000000000000000000000000000000008152600401610aa8906139dd565b60405180910390fd5b6000610abc856108d7565b90503373ffffffffffffffffffffffffffffffffffffffff168173ffffffffffffffffffffffffffffffffffffffff1614610b2c576040517f08c379a0000000000000000000000000000000000000000000000000000000008152600401610b2390613a49565b60405180910390fd5b610b378584846118da565b8273ffffffffffffffffffffffffffffffffffffffff1663a9059cbb85846040518363ffffffff1660e01b8152600401610b72929190613a69565b6020604051808303816000875af1158015610b91573d6000803e3d6000fd5b505050506040513d601f19601f82011682018060405250810190610bb591906137d4565b610bf4576040517f08c379a0000000000000000000000000000000000000000000000000000000008152600401610beb9061384d565b60405180910390fd5b8273ffffffffffffffffffffffffffffffffffffffff168473ffffffffffffffffffffffffffffffffffffffff16867fa8352277873fc0d2b233b8127433da351a4164fa701ed6ff79655694222932c485604051610c529190612cdd565b60405180910390a45050505050565b606060018054610c70906134a2565b80601f0160208091040260200160405190810160405280929190818152602001828054610c9c906134a2565b8015610ce95780601f10610cbe57610100808354040283529160200191610ce9565b820191906000526020600020905b815481529060010190602001808311610ccc57829003601f168201915b5050505050905090565b610d05610cfe61123b565b8383611c6d565b5050565b610d1a610d1461123b565b836112fc565b610d59576040517f08c379a0000000000000000000000000000000000000000000000000000000008152600401610d50906136fc565b60405180910390fd5b610d6584848484611dda565b50505050565b6060600a6000838152602001908152602001600020805480602002602001604051908101604052809291908181526020016000905b82821015610e62578382906000526020600020016040518060400160405290816000820160009054906101000a900473ffffffffffffffffffffffffffffffffffffffff1673ffffffffffffffffffffffffffffffffffffffff1673ffffffffffffffffffffffffffffffffffffffff1681526020016000820160149054906101000a90046bffffffffffffffffffffffff166bffffffffffffffffffffffff166bffffffffffffffffffffffff168152505081526020019060010190610da0565b505050509050919050565b6060610e78826111cf565b610eb7576040517f08c379a0000000000000000000000000000000000000000000000000000000008152600401610eae90613b04565b60405180910390fd5b6000600660008481526020019081526020016000208054610ed7906134a2565b80601f0160208091040260200160405190810160405280929190818152602001828054610f03906134a2565b8015610f505780601f10610f2557610100808354040283529160200191610f50565b820191906000526020600020905b815481529060010190602001808311610f3357829003601f168201915b505050505090506000610f61611e36565b9050600081511415610f77578192505050610fba565b600082511115610fac578082604051602001610f94929190613b60565b60405160208183030381529060405292505050610fba565b610fb584611e4d565b925050505b919050565b60006008600084815260200190815260200160002060008373ffffffffffffffffffffffffffffffffffffffff1673ffffffffffffffffffffffffffffffffffffffff16815260200190815260200160002054905092915050565b6000600560008473ffffffffffffffffffffffffffffffffffffffff1673ffffffffffffffffffffffffffffffffffffffff16815260200190815260200160002060008373ffffffffffffffffffffffffffffffffffffffff1673ffffffffffffffffffffffffffffffffffffffff16815260200190815260200160002060009054906101000a900460ff16905092915050565b6000806110bb6007611ef4565b90506110c78184611f02565b6110d1858261221e565b6110db818561223c565b6110e560076122b0565b809150509392505050565b600a602052816000526040600020818154811061110c57600080fd5b90600052602060002001600091509150508060000160009054906101000a900473ffffffffffffffffffffffffffffffffffffffff16908060000160149054906101000a90046bffffffffffffffffffffffff16905082565b60007f01ffc9a7000000000000000000000000000000000000000000000000000000007bffffffffffffffffffffffffffffffffffffffffffffffffffffffff1916827bffffffffffffffffffffffffffffffffffffffffffffffffffffffff1916149050919050565b60008073ffffffffffffffffffffffffffffffffffffffff166002600084815260200190815260200160002060009054906101000a900473ffffffffffffffffffffffffffffffffffffffff1673ffffffffffffffffffffffffffffffffffffffff1614159050919050565b600033905090565b816004600083815260200190815260200160002060006101000a81548173ffffffffffffffffffffffffffffffffffffffff021916908373ffffffffffffffffffffffffffffffffffffffff160217905550808273ffffffffffffffffffffffffffffffffffffffff166112b6836108d7565b73ffffffffffffffffffffffffffffffffffffffff167f8c5be1e5ebec7d5bd14f71427d1e84f3dd0314c0f7b2291e5b200ac8c7c3b92560405160405180910390a45050565b6000611307826111cf565b611346576040517f08c379a000000000000000000000000000000000000000000000000000000000815260040161133d90613bf6565b60405180910390fd5b6000611351836108d7565b90508073ffffffffffffffffffffffffffffffffffffffff168473ffffffffffffffffffffffffffffffffffffffff1614806113935750611392818561101a565b5b806113d157508373ffffffffffffffffffffffffffffffffffffffff166113b98461057b565b73ffffffffffffffffffffffffffffffffffffffff16145b91505092915050565b8273ffffffffffffffffffffffffffffffffffffffff166113fa826108d7565b73ffffffffffffffffffffffffffffffffffffffff1614611450576040517f08c379a000000000000000000000000000000000000000000000000000000000815260040161144790613c88565b60405180910390fd5b600073ffffffffffffffffffffffffffffffffffffffff168273ffffffffffffffffffffffffffffffffffffffff1614156114c0576040517f08c379a00000000000000000000000000000000000000000000000000000000081526004016114b790613d1a565b60405180910390fd5b6114cb8383836122c6565b6114d6600082611243565b6001600360008573ffffffffffffffffffffffffffffffffffffffff1673ffffffffffffffffffffffffffffffffffffffff16815260200190815260200160002060008282546115269190613d69565b925050819055506001600360008473ffffffffffffffffffffffffffffffffffffffff1673ffffffffffffffffffffffffffffffffffffffff168152602001908152602001600020600082825461157d9190613d9d565b92505081905550816002600083815260200190815260200160002060006101000a81548173ffffffffffffffffffffffffffffffffffffffff021916908373ffffffffffffffffffffffffffffffffffffffff160217905550808273ffffffffffffffffffffffffffffffffffffffff168473ffffffffffffffffffffffffffffffffffffffff167fddf252ad1be2c89b69c2b068fc378daa952ba7f163c4a11628f55a4df523b3ef60405160405180910390a461163c8383836122cb565b505050565b600073ffffffffffffffffffffffffffffffffffffffff16611662846108d7565b73ffffffffffffffffffffffffffffffffffffffff1614156116b9576040517f08c379a00000000000000000000000000000000000000000000000000000000081526004016116b090613e3f565b60405180910390fd5b60008114156116c7576118d4565b60006008600085815260200190815260200160002060008473ffffffffffffffffffffffffffffffffffffffff1673ffffffffffffffffffffffffffffffffffffffff1681526020019081526020016000205490506000811415611805576009600085815260200190815260200160002080549050600b600086815260200190815260200160002060008573ffffffffffffffffffffffffffffffffffffffff1673ffffffffffffffffffffffffffffffffffffffff1681526020019081526020016000208190555060096000858152602001908152602001600020839080600181540180825580915050600190039060005260206000200160009091909190916101000a81548173ffffffffffffffffffffffffffffffffffffffff021916908373ffffffffffffffffffffffffffffffffffffffff1602179055505b816008600086815260200190815260200160002060008573ffffffffffffffffffffffffffffffffffffffff1673ffffffffffffffffffffffffffffffffffffffff16815260200190815260200160002060008282546118659190613d9d565b925050819055508273ffffffffffffffffffffffffffffffffffffffff16848673ffffffffffffffffffffffffffffffffffffffff167f684ce28ace37552c6bfb98b7cceda8ed55327078eafb5dfb31218e0856382763856040516118ca9190612cdd565b60405180910390a4505b50505050565b60008114156118e857611c68565b60006008600085815260200190815260200160002060008473ffffffffffffffffffffffffffffffffffffffff1673ffffffffffffffffffffffffffffffffffffffff16815260200190815260200160002054905081811015611980576040517f08c379a000000000000000000000000000000000000000000000000000000000815260040161197790613ed1565b60405180910390fd5b6000828261198e9190613d69565b9050806008600087815260200190815260200160002060008673ffffffffffffffffffffffffffffffffffffffff1673ffffffffffffffffffffffffffffffffffffffff168152602001908152602001600020819055506000811415611c6557600060016009600088815260200190815260200160002080549050611a139190613d69565b90506000600960008881526020019081526020016000208281548110611a3c57611a3b613ef1565b5b9060005260206000200160009054906101000a900473ffffffffffffffffffffffffffffffffffffffff1690508073ffffffffffffffffffffffffffffffffffffffff168673ffffffffffffffffffffffffffffffffffffffff1614611bb6576000600b600089815260200190815260200160002060008873ffffffffffffffffffffffffffffffffffffffff1673ffffffffffffffffffffffffffffffffffffffff16815260200190815260200160002054905081600960008a81526020019081526020016000208281548110611b1757611b16613ef1565b5b9060005260206000200160006101000a81548173ffffffffffffffffffffffffffffffffffffffff021916908373ffffffffffffffffffffffffffffffffffffffff16021790555080600b60008a815260200190815260200160002060008473ffffffffffffffffffffffffffffffffffffffff1673ffffffffffffffffffffffffffffffffffffffff16815260200190815260200160002081905550505b600b600088815260200190815260200160002060008773ffffffffffffffffffffffffffffffffffffffff1673ffffffffffffffffffffffffffffffffffffffff1681526020019081526020016000206000905560096000888152602001908152602001600020805480611c2d57611c2c613f20565b5b6001900381819060005260206000200160006101000a81549073ffffffffffffffffffffffffffffffffffffffff0219169055905550505b50505b505050565b8173ffffffffffffffffffffffffffffffffffffffff168373ffffffffffffffffffffffffffffffffffffffff161415611cdc576040517f08c379a0000000000000000000000000000000000000000000000000000000008152600401611cd390613f9b565b60405180910390fd5b80600560008573ffffffffffffffffffffffffffffffffffffffff1673ffffffffffffffffffffffffffffffffffffffff16815260200190815260200160002060008473ffffffffffffffffffffffffffffffffffffffff1673ffffffffffffffffffffffffffffffffffffffff16815260200190815260200160002060006101000a81548160ff0219169083151502179055508173ffffffffffffffffffffffffffffffffffffffff168373ffffffffffffffffffffffffffffffffffffffff167f17307eab39ab6107e8899845ad3d59bd9653f200f220920489ca2b5937696c3183604051611dcd91906129e6565b60405180910390a3505050565b611de58484846113da565b611df1848484846122d0565b611e30576040517f08c379a0000000000000000000000000000000000000000000000000000000008152600401611e279061402d565b60405180910390fd5b50505050565b606060405180602001604052806000815250905090565b6060611e58826111cf565b611e97576040517f08c379a0000000000000000000000000000000000000000000000000000000008152600401611e8e906140bf565b60405180910390fd5b6000611ea1611e36565b90506000815111611ec15760405180602001604052806000815250611eec565b80611ecb84612458565b604051602001611edc929190613b60565b6040516020818303038152906040525b915050919050565b600081600001549050919050565b600a81511115611f47576040517f08c379a0000000000000000000000000000000000000000000000000000000008152600401611f3e9061412b565b60405180910390fd5b600a60008381526020019081526020016000206000611f669190612811565b6000805b825181101561219157600073ffffffffffffffffffffffffffffffffffffffff16838281518110611f9e57611f9d613ef1565b5b60200260200101516000015173ffffffffffffffffffffffffffffffffffffffff161415612001576040517f08c379a0000000000000000000000000000000000000000000000000000000008152600401611ff8906141bd565b60405180910390fd5b600083828151811061201657612015613ef1565b5b6020026020010151602001516bffffffffffffffffffffffff161415612071576040517f08c379a000000000000000000000000000000000000000000000000000000000815260040161206890614229565b60405180910390fd5b600a600085815260200190815260200160002083828151811061209757612096613ef1565b5b60200260200101519080600181540180825580915050600190039060005260206000200160009091909190915060008201518160000160006101000a81548173ffffffffffffffffffffffffffffffffffffffff021916908373ffffffffffffffffffffffffffffffffffffffff16021790555060208201518160000160146101000a8154816bffffffffffffffffffffffff02191690836bffffffffffffffffffffffff160217905550505082818151811061215757612156613ef1565b5b6020026020010151602001516bffffffffffffffffffffffff168261217c9190613d9d565b9150808061218990614249565b915050611f6a565b5061271081106121d6576040517f08c379a00000000000000000000000000000000000000000000000000000000081526004016121cd906142de565b60405180910390fd5b816040516121e491906143fa565b6040518091039020837fe23425cf56a81561c420f592eb54f21107c562f26c8c78c4a20d26920d244e6660405160405180910390a3505050565b6122388282604051806020016040528060008152506125b9565b5050565b612245826111cf565b612284576040517f08c379a000000000000000000000000000000000000000000000000000000000815260040161227b90614483565b60405180910390fd5b806006600084815260200190815260200160002090805190602001906122ab929190612832565b505050565b6001816000016000828254019250508190555050565b505050565b505050565b60006122f18473ffffffffffffffffffffffffffffffffffffffff16612614565b1561244b578373ffffffffffffffffffffffffffffffffffffffff1663150b7a0261231a61123b565b8786866040518563ffffffff1660e01b815260040161233c94939291906144f8565b6020604051808303816000875af192505050801561237857506040513d601f19601f820116820180604052508101906123759190614559565b60015b6123fb573d80600081146123a8576040519150601f19603f3d011682016040523d82523d6000602084013e6123ad565b606091505b506000815114156123f3576040517f08c379a00000000000000000000000000000000000000000000000000000000081526004016123ea9061402d565b60405180910390fd5b805181602001fd5b63150b7a0260e01b7bffffffffffffffffffffffffffffffffffffffffffffffffffffffff1916817bffffffffffffffffffffffffffffffffffffffffffffffffffffffff191614915050612450565b600190505b949350505050565b606060008214156124a0576040518060400160405280600181526020017f300000000000000000000000000000000000000000000000000000000000000081525090506125b4565b600082905060005b600082146124d25780806124bb90614249565b915050600a826124cb91906145b5565b91506124a8565b60008167ffffffffffffffff8111156124ee576124ed612dd5565b5b6040519080825280601f01601f1916602001820160405280156125205781602001600182028036833780820191505090505b5090505b600085146125ad576001826125399190613d69565b9150600a8561254891906145e6565b60306125549190613d9d565b60f81b81838151811061256a57612569613ef1565b5b60200101907effffffffffffffffffffffffffffffffffffffffffffffffffffffffffffff1916908160001a905350600a856125a691906145b5565b9450612524565b8093505050505b919050565b6125c38383612637565b6125d060008484846122d0565b61260f576040517f08c379a00000000000000000000000000000000000000000000000000000000081526004016126069061402d565b60405180910390fd5b505050565b6000808273ffffffffffffffffffffffffffffffffffffffff163b119050919050565b600073ffffffffffffffffffffffffffffffffffffffff168273ffffffffffffffffffffffffffffffffffffffff1614156126a7576040517f08c379a000000000000000000000000000000000000000000000000000000000815260040161269e90614663565b60405180910390fd5b6126b0816111cf565b156126f0576040517f08c379a00000000000000000000000000000000000000000000000000000000081526004016126e7906146cf565b60405180910390fd5b6126fc600083836122c6565b6001600360008473ffffffffffffffffffffffffffffffffffffffff1673ffffffffffffffffffffffffffffffffffffffff168152602001908152602001600020600082825461274c9190613d9d565b92505081905550816002600083815260200190815260200160002060006101000a81548173ffffffffffffffffffffffffffffffffffffffff021916908373ffffffffffffffffffffffffffffffffffffffff160217905550808273ffffffffffffffffffffffffffffffffffffffff16600073ffffffffffffffffffffffffffffffffffffffff167fddf252ad1be2c89b69c2b068fc378daa952ba7f163c4a11628f55a4df523b3ef60405160405180910390a461280d600083836122cb565b5050565b508054600082559060005260206000209081019061282f91906128b8565b50565b82805461283e906134a2565b90600052602060002090601f01602090048101928261286057600085556128a7565b82601f1061287957805160ff19168380011785556128a7565b828001600101855582156128a7579182015b828111156128a657825182559160200191906001019061288b565b5b5090506128b49190612915565b5090565b5b8082111561291157600080820160006101000a81549073ffffffffffffffffffffffffffffffffffffffff02191690556000820160146101000a8154906bffffffffffffffffffffffff0219169055506001016128b9565b5090565b5b8082111561292e576000816000905550600101612916565b5090565b6000604051905090565b600080fd5b600080fd5b60007fffffffff0000000000000000000000000000000000000000000000000000000082169050919050565b61297b81612946565b811461298657600080fd5b50565b60008135905061299881612972565b92915050565b6000602082840312156129b4576129b361293c565b5b60006129c284828501612989565b91505092915050565b60008115159050919050565b6129e0816129cb565b82525050565b60006020820190506129fb60008301846129d7565b92915050565b600081519050919050565b600082825260208201905092915050565b60005b83811015612a3b578082015181840152602081019050612a20565b83811115612a4a576000848401525b50505050565b6000601f19601f8301169050919050565b6000612a6c82612a01565b612a768185612a0c565b9350612a86818560208601612a1d565b612a8f81612a50565b840191505092915050565b60006020820190508181036000830152612ab48184612a61565b905092915050565b6000819050919050565b612acf81612abc565b8114612ada57600080fd5b50565b600081359050612aec81612ac6565b92915050565b600060208284031215612b0857612b0761293c565b5b6000612b1684828501612add565b91505092915050565b600073ffffffffffffffffffffffffffffffffffffffff82169050919050565b6000612b4a82612b1f565b9050919050565b612b5a81612b3f565b82525050565b6000602082019050612b756000830184612b51565b92915050565b612b8481612b3f565b8114612b8f57600080fd5b50565b600081359050612ba181612b7b565b92915050565b60008060408385031215612bbe57612bbd61293c565b5b6000612bcc85828601612b92565b9250506020612bdd85828601612add565b9150509250929050565b600080600060608486031215612c0057612bff61293c565b5b6000612c0e86828701612b92565b9350506020612c1f86828701612b92565b9250506040612c3086828701612add565b9150509250925092565b60008060008060808587031215612c5457612c5361293c565b5b6000612c6287828801612b92565b9450506020612c7387828801612add565b9350506040612c8487828801612b92565b9250506060612c9587828801612add565b91505092959194509250565b600060208284031215612cb757612cb661293c565b5b6000612cc584828501612b92565b91505092915050565b612cd781612abc565b82525050565b6000602082019050612cf26000830184612cce565b92915050565b60008060008060808587031215612d1257612d1161293c565b5b6000612d2087828801612add565b9450506020612d3187828801612b92565b9350506040612d4287828801612b92565b9250506060612d5387828801612add565b91505092959194509250565b612d68816129cb565b8114612d7357600080fd5b50565b600081359050612d8581612d5f565b92915050565b60008060408385031215612da257612da161293c565b5b6000612db085828601612b92565b9250506020612dc185828601612d76565b9150509250929050565b600080fd5b600080fd5b7f4e487b7100000000000000000000000000000000000000000000000000000000600052604160045260246000fd5b612e0d82612a50565b810181811067ffffffffffffffff82111715612e2c57612e2b612dd5565b5b80604052505050565b6000612e3f612932565b9050612e4b8282612e04565b919050565b600067ffffffffffffffff821115612e6b57612e6a612dd5565b5b612e7482612a50565b9050602081019050919050565b82818337600083830152505050565b6000612ea3612e9e84612e50565b612e35565b905082815260208101848484011115612ebf57612ebe612dd0565b5b612eca848285612e81565b509392505050565b600082601f830112612ee757612ee6612dcb565b5b8135612ef7848260208601612e90565b91505092915050565b60008060008060808587031215612f1a57612f1961293c565b5b6000612f2887828801612b92565b9450506020612f3987828801612b92565b9350506040612f4a87828801612add565b925050606085013567ffffffffffffffff811115612f6b57612f6a612941565b5b612f7787828801612ed2565b91505092959194509250565b600081519050919050565b600082825260208201905092915050565b6000819050602082019050919050565b6000612fba82612b1f565b9050919050565b612fca81612faf565b82525050565b60006bffffffffffffffffffffffff82169050919050565b612ff181612fd0565b82525050565b60408201600082015161300d6000850182612fc1565b5060208201516130206020850182612fe8565b50505050565b60006130328383612ff7565b60408301905092915050565b6000602082019050919050565b600061305682612f83565b6130608185612f8e565b935061306b83612f9f565b8060005b8381101561309c5781516130838882613026565b975061308e8361303e565b92505060018101905061306f565b5085935050505092915050565b600060208201905081810360008301526130c3818461304b565b905092915050565b600080604083850312156130e2576130e161293c565b5b60006130f085828601612add565b925050602061310185828601612b92565b9150509250929050565b600080604083850312156131225761312161293c565b5b600061313085828601612b92565b925050602061314185828601612b92565b9150509250929050565b600067ffffffffffffffff82111561316657613165612dd5565b5b61316f82612a50565b9050602081019050919050565b600061318f61318a8461314b565b612e35565b9050828152602081018484840111156131ab576131aa612dd0565b5b6131b6848285612e81565b509392505050565b600082601f8301126131d3576131d2612dcb565b5b81356131e384826020860161317c565b91505092915050565b600067ffffffffffffffff82111561320757613206612dd5565b5b602082029050602081019050919050565b600080fd5b600080fd5b61322b81612faf565b811461323657600080fd5b50565b60008135905061324881613222565b92915050565b61325781612fd0565b811461326257600080fd5b50565b6000813590506132748161324e565b92915050565b6000604082840312156132905761328f61321d565b5b61329a6040612e35565b905060006132aa84828501613239565b60008301525060206132be84828501613265565b60208301525092915050565b60006132dd6132d8846131ec565b612e35565b90508083825260208201905060408402830185811115613300576132ff613218565b5b835b818110156133295780613315888261327a565b845260208401935050604081019050613302565b5050509392505050565b600082601f83011261334857613347612dcb565b5b81356133588482602086016132ca565b91505092915050565b60008060006060848603121561337a5761337961293c565b5b600061338886828701612b92565b935050602084013567ffffffffffffffff8111156133a9576133a8612941565b5b6133b5868287016131be565b925050604084013567ffffffffffffffff8111156133d6576133d5612941565b5b6133e286828701613333565b9150509250925092565b600080604083850312156134035761340261293c565b5b600061341185828601612add565b925050602061342285828601612add565b9150509250929050565b61343581612faf565b82525050565b61344481612fd0565b82525050565b600060408201905061345f600083018561342c565b61346c602083018461343b565b9392505050565b7f4e487b7100000000000000000000000000000000000000000000000000000000600052602260045260246000fd5b600060028204905060018216806134ba57607f821691505b602082108114156134ce576134cd613473565b5b50919050565b7f4552433732313a20617070726f76656420717565727920666f72206e6f6e657860008201527f697374656e7420746f6b656e0000000000000000000000000000000000000000602082015250565b6000613530602c83612a0c565b915061353b826134d4565b604082019050919050565b6000602082019050818103600083015261355f81613523565b9050919050565b7f4552433732313a20617070726f76616c20746f2063757272656e74206f776e6560008201527f7200000000000000000000000000000000000000000000000000000000000000602082015250565b60006135c2602183612a0c565b91506135cd82613566565b604082019050919050565b600060208201905081810360008301526135f1816135b5565b9050919050565b7f4552433732313a20617070726f76652063616c6c6572206973206e6f74206f7760008201527f6e6572206e6f7220617070726f76656420666f7220616c6c0000000000000000602082015250565b6000613654603883612a0c565b915061365f826135f8565b604082019050919050565b6000602082019050818103600083015261368381613647565b9050919050565b7f4552433732313a207472616e736665722063616c6c6572206973206e6f74206f60008201527f776e6572206e6f7220617070726f766564000000000000000000000000000000602082015250565b60006136e6603183612a0c565b91506136f18261368a565b604082019050919050565b60006020820190508181036000830152613715816136d9565b9050919050565b7f6e6f7420616c6c6f77656420746f206164642045524332300000000000000000600082015250565b6000613752601883612a0c565b915061375d8261371c565b602082019050919050565b6000602082019050818103600083015261378181613745565b9050919050565b600060608201905061379d6000830186612b51565b6137aa6020830185612b51565b6137b76040830184612cce565b949350505050565b6000815190506137ce81612d5f565b92915050565b6000602082840312156137ea576137e961293c565b5b60006137f8848285016137bf565b91505092915050565b7f4552433230207472616e73666572206661696c65642e00000000000000000000600082015250565b6000613837601683612a0c565b915061384282613801565b602082019050919050565b600060208201905081810360008301526138668161382a565b9050919050565b7f4552433732313a206f776e657220717565727920666f72206e6f6e657869737460008201527f656e7420746f6b656e0000000000000000000000000000000000000000000000602082015250565b60006138c9602983612a0c565b91506138d48261386d565b604082019050919050565b600060208201905081810360008301526138f8816138bc565b9050919050565b7f4552433732313a2062616c616e636520717565727920666f7220746865207a6560008201527f726f206164647265737300000000000000000000000000000000000000000000602082015250565b600061395b602a83612a0c565b9150613966826138ff565b604082019050919050565b6000602082019050818103600083015261398a8161394e565b9050919050565b7f63616e6e6f742073656e6420746f207a65726f20616464726573730000000000600082015250565b60006139c7601b83612a0c565b91506139d282613991565b602082019050919050565b600060208201905081810360008301526139f6816139ba565b9050919050565b7f6f6e6c79206f776e65722063616e207472616e73666572000000000000000000600082015250565b6000613a33601783612a0c565b9150613a3e826139fd565b602082019050919050565b60006020820190508181036000830152613a6281613a26565b9050919050565b6000604082019050613a7e6000830185612b51565b613a8b6020830184612cce565b9392505050565b7f45524337323155524953746f726167653a2055524920717565727920666f722060008201527f6e6f6e6578697374656e7420746f6b656e000000000000000000000000000000602082015250565b6000613aee603183612a0c565b9150613af982613a92565b604082019050919050565b60006020820190508181036000830152613b1d81613ae1565b9050919050565b600081905092915050565b6000613b3a82612a01565b613b448185613b24565b9350613b54818560208601612a1d565b80840191505092915050565b6000613b6c8285613b2f565b9150613b788284613b2f565b91508190509392505050565b7f4552433732313a206f70657261746f7220717565727920666f72206e6f6e657860008201527f697374656e7420746f6b656e0000000000000000000000000000000000000000602082015250565b6000613be0602c83612a0c565b9150613beb82613b84565b604082019050919050565b60006020820190508181036000830152613c0f81613bd3565b9050919050565b7f4552433732313a207472616e736665722066726f6d20696e636f72726563742060008201527f6f776e6572000000000000000000000000000000000000000000000000000000602082015250565b6000613c72602583612a0c565b9150613c7d82613c16565b604082019050919050565b60006020820190508181036000830152613ca181613c65565b9050919050565b7f4552433732313a207472616e7366657220746f20746865207a65726f2061646460008201527f7265737300000000000000000000000000000000000000000000000000000000602082015250565b6000613d04602483612a0c565b9150613d0f82613ca8565b604082019050919050565b60006020820190508181036000830152613d3381613cf7565b9050919050565b7f4e487b7100000000000000000000000000000000000000000000000000000000600052601160045260246000fd5b6000613d7482612abc565b9150613d7f83612abc565b925082821015613d9257613d91613d3a565b5b828203905092915050565b6000613da882612abc565b9150613db383612abc565b9250827fffffffffffffffffffffffffffffffffffffffffffffffffffffffffffffffff03821115613de857613de7613d3a565b5b828201905092915050565b7f5f746f6b656e496420646f6573206e6f742065786973742e0000000000000000600082015250565b6000613e29601883612a0c565b9150613e3482613df3565b602082019050919050565b60006020820190508181036000830152613e5881613e1c565b9050919050565b7f4e6f7420656e6f75676820746f6b656e20617661696c61626c6520746f20747260008201527f616e736665722e00000000000000000000000000000000000000000000000000602082015250565b6000613ebb602783612a0c565b9150613ec682613e5f565b604082019050919050565b60006020820190508181036000830152613eea81613eae565b9050919050565b7f4e487b7100000000000000000000000000000000000000000000000000000000600052603260045260246000fd5b7f4e487b7100000000000000000000000000000000000000000000000000000000600052603160045260246000fd5b7f4552433732313a20617070726f766520746f2063616c6c657200000000000000600082015250565b6000613f85601983612a0c565b9150613f9082613f4f565b602082019050919050565b60006020820190508181036000830152613fb481613f78565b9050919050565b7f4552433732313a207472616e7366657220746f206e6f6e20455243373231526560008201527f63656976657220696d706c656d656e7465720000000000000000000000000000602082015250565b6000614017603283612a0c565b915061402282613fbb565b604082019050919050565b600060208201905081810360008301526140468161400a565b9050919050565b7f4552433732314d657461646174613a2055524920717565727920666f72206e6f60008201527f6e6578697374656e7420746f6b656e0000000000000000000000000000000000602082015250565b60006140a9602f83612a0c565b91506140b48261404d565b604082019050919050565b600060208201905081810360008301526140d88161409c565b9050919050565b7f41746d6f737420313020726f79616c746965732063616e206265206164646564600082015250565b6000614115602083612a0c565b9150614120826140df565b602082019050919050565b6000602082019050818103600083015261414481614108565b9050919050565b7f526f79616c747920726563697069656e742073686f756c64206265207072657360008201527f656e740000000000000000000000000000000000000000000000000000000000602082015250565b60006141a7602383612a0c565b91506141b28261414b565b604082019050919050565b600060208201905081810360008301526141d68161419a565b9050919050565b7f526f79616c74792076616c75652073686f756c64206265203e20300000000000600082015250565b6000614213601b83612a0c565b915061421e826141dd565b602082019050919050565b6000602082019050818103600083015261424281614206565b9050919050565b600061425482612abc565b91507fffffffffffffffffffffffffffffffffffffffffffffffffffffffffffffffff82141561428757614286613d3a565b5b600182019050919050565b7f53756d206f6620526f79616c74696573203e2031303025000000000000000000600082015250565b60006142c8601783612a0c565b91506142d382614292565b602082019050919050565b600060208201905081810360008301526142f7816142bb565b9050919050565b600081905092915050565b61431281612faf565b82525050565b60006143248383614309565b60208301905092915050565b61433981612fd0565b82525050565b600061434b8383614330565b60208301905092915050565b60008201600082015161436a8482614318565b935050602082015161437c848261433f565b935050505050565b60006143908383614357565b60408301905092915050565b60006143a782612f83565b6143b181856142fe565b93506143bc83612f9f565b8060005b838110156143ed5781516143d48882614384565b97506143df8361303e565b9250506001810190506143c0565b5085935050505092915050565b6000614406828461439c565b915081905092915050565b7f45524337323155524953746f726167653a2055524920736574206f66206e6f6e60008201527f6578697374656e7420746f6b656e000000000000000000000000000000000000602082015250565b600061446d602e83612a0c565b915061447882614411565b604082019050919050565b6000602082019050818103600083015261449c81614460565b9050919050565b600081519050919050565b600082825260208201905092915050565b60006144ca826144a3565b6144d481856144ae565b93506144e4818560208601612a1d565b6144ed81612a50565b840191505092915050565b600060808201905061450d6000830187612b51565b61451a6020830186612b51565b6145276040830185612cce565b818103606083015261453981846144bf565b905095945050505050565b60008151905061455381612972565b92915050565b60006020828403121561456f5761456e61293c565b5b600061457d84828501614544565b91505092915050565b7f4e487b7100000000000000000000000000000000000000000000000000000000600052601260045260246000fd5b60006145c082612abc565b91506145cb83612abc565b9250826145db576145da614586565b5b828204905092915050565b60006145f182612abc565b91506145fc83612abc565b92508261460c5761460b614586565b5b828206905092915050565b7f4552433732313a206d696e7420746f20746865207a65726f2061646472657373600082015250565b600061464d602083612a0c565b915061465882614617565b602082019050919050565b6000602082019050818103600083015261467c81614640565b9050919050565b7f4552433732313a20746f6b656e20616c7265616479206d696e74656400000000600082015250565b60006146b9601c83612a0c565b91506146c482614683565b602082019050919050565b600060208201905081810360008301526146e8816146ac565b905091905056fea26469706673582212207190a549e94ee326d1e4834f3715f826810adfb3bfa79ea03cb074244ba9e21764736f6c634300080b0033",
  "immutableReferences": {},
  "source": "// SPDX-License-Identifier: MIT\npragma solidity >=0.4.22 <0.9.0;\n\nimport \"@openzeppelin/contracts/token/ERC20/IERC20.sol\";\nimport \"@openzeppelin/contracts/token/ERC721/extensions/ERC721URIStorage.sol\";\nimport \"@openzeppelin/contracts/utils/Counters.sol\";\nimport \"./utils/LibShare.sol\";\n\ncontract piNFT is ERC721URIStorage{\n\n    using Counters for Counters.Counter;\n    Counters.Counter private _tokenIdCounter;\n\n    // tokenId => (token contract => balance)\n    mapping(uint256 => mapping(address => uint256)) erc20Balances;\n\n    // tokenId => token contract\n    mapping(uint256 => address[]) erc20Contracts;\n\n    // tokenId => royalties\n    mapping(uint256 => LibShare.Share[]) public royaltiesByTokenId;\n\n    // tokenId => (token contract => token contract index)\n    mapping(uint256 => mapping(address => uint256)) erc20ContractIndex;\n\n    event ReceivedERC20(address indexed _from, uint256 indexed _tokenId, address indexed _erc20Contract, uint256 _value);\n    event TransferERC20(uint256 indexed _tokenId, address indexed _to, address indexed _erc20Contract, uint256 _value);\n    event RoyaltiesSetForTokenId(uint256 indexed tokenId, LibShare.Share[] indexed royalties);\n\n    constructor(string memory _name, string memory _symbol) ERC721(_name, _symbol) {}\n    \n    // mints an ERC721 token to _to with _uri as token uri\n    function mintNFT(address _to, string memory _uri, LibShare.Share[] memory royalties) public returns (uint256) {\n        uint256 tokenId_ = _tokenIdCounter.current();\n        _setRoyaltiesByTokenId(tokenId_, royalties);\n        _safeMint(_to, tokenId_);\n        _setTokenURI(tokenId_, _uri);\n        _tokenIdCounter.increment();\n        return tokenId_;\n    }\n\n    function _setRoyaltiesByTokenId(\n        uint256 _tokenId,\n        LibShare.Share[] memory royalties\n    ) internal {\n        require(royalties.length <= 10, 'Atmost 10 royalties can be added');\n        delete royaltiesByTokenId[_tokenId];\n        uint256 sumRoyalties = 0;\n        for (uint256 i = 0; i < royalties.length; i++) {\n            require(\n                royalties[i].account != address(0x0),\n                \"Royalty recipient should be present\"\n            );\n            require(royalties[i].value != 0, \"Royalty value should be > 0\");\n            royaltiesByTokenId[_tokenId].push(royalties[i]);\n            sumRoyalties += royalties[i].value;\n        }\n        require(sumRoyalties < 10000, \"Sum of Royalties > 100%\");\n\n        emit RoyaltiesSetForTokenId(_tokenId, royalties);\n    }\n\n    function getRoyalties(uint256 _tokenId)\n        external\n        view\n        returns (LibShare.Share[] memory)\n    {\n        return royaltiesByTokenId[_tokenId];\n    }\n\n    // this function requires approval of tokens by _erc20Contract\n    // adds ERC20 tokens to the token with _tokenId(basically trasnfer ERC20 to this contract)\n    function addERC20(address _from, uint256 _tokenId, address _erc20Contract, uint256 _value) public {\n        require(_from == msg.sender, \"not allowed to add ERC20\");\n        erc20Received(_from, _tokenId, _erc20Contract, _value);\n        require(IERC20(_erc20Contract).transferFrom(_from, address(this), _value), \"ERC20 transfer failed.\");\n    }\n\n    // update the mappings for a token on recieving ERC20 tokens\n    function erc20Received(address _from, uint256 _tokenId, address _erc20Contract, uint256 _value) private {\n        require(ERC721.ownerOf(_tokenId) != address(0), \"_tokenId does not exist.\");\n        if (_value == 0) {\n            return;\n        }\n        uint256 erc20Balance = erc20Balances[_tokenId][_erc20Contract];\n        if (erc20Balance == 0) {\n            erc20ContractIndex[_tokenId][_erc20Contract] = erc20Contracts[_tokenId].length;\n            erc20Contracts[_tokenId].push(_erc20Contract);\n        }\n        erc20Balances[_tokenId][_erc20Contract] += _value;\n        emit ReceivedERC20(_from, _tokenId, _erc20Contract, _value);\n    }\n\n    // transfers the ERC 20 tokens from _tokenId(this contract) to _to address\n    function transferERC20(uint256 _tokenId, address _to, address _erc20Contract, uint256 _value) external {\n        require(_to != address(0), 'cannot send to zero address');\n        address rootOwner = ERC721.ownerOf(_tokenId);\n        require(rootOwner == msg.sender, 'only owner can transfer');\n        removeERC20(_tokenId, _erc20Contract, _value);\n        require(IERC20(_erc20Contract).transfer(_to, _value), \"ERC20 transfer failed.\");\n        emit TransferERC20(_tokenId, _to, _erc20Contract, _value);\n    }\n\n    // update the mappings for a token when ERC20 tokens gets removed\n    function removeERC20(uint256 _tokenId, address _erc20Contract, uint256 _value) private {\n        if (_value == 0) {\n            return;\n        }\n        uint256 erc20Balance = erc20Balances[_tokenId][_erc20Contract];\n        require(erc20Balance >= _value, \"Not enough token available to transfer.\");\n        uint256 newERC20Balance = erc20Balance - _value;\n        erc20Balances[_tokenId][_erc20Contract] = newERC20Balance;\n        if (newERC20Balance == 0) {\n            uint256 lastContractIndex = erc20Contracts[_tokenId].length - 1;\n            address lastContract = erc20Contracts[_tokenId][lastContractIndex];\n            if (_erc20Contract != lastContract) {\n                uint256 contractIndex = erc20ContractIndex[_tokenId][_erc20Contract];\n                erc20Contracts[_tokenId][contractIndex] = lastContract;\n                erc20ContractIndex[_tokenId][lastContract] = contractIndex;\n            }\n            delete erc20ContractIndex[_tokenId][_erc20Contract];\n            erc20Contracts[_tokenId].pop();\n\n        }\n    }\n\n    // view ERC 20 token balance of a token\n    function viewBalance(uint256 _tokenId, address _erc20Address) public view returns (uint256) {\n        return erc20Balances[_tokenId][_erc20Address];\n    }\n\n}",
  "sourcePath": "/Users/parv/Desktop/Pandora/piNFTOfficial/aconomy-contract/contracts/piNFT.sol",
  "compiler": {
    "name": "solc",
    "version": "0.8.11+commit.d7f03943.Emscripten.clang"
  },
  "schemaVersion": "3.4.4",
  "updatedAt": "2022-07-07T11:58:14.349Z",
  "networkType": "ethereum",
  "devdoc": {
    "kind": "dev",
    "methods": {
      "approve(address,uint256)": {
        "details": "See {IERC721-approve}."
      },
      "balanceOf(address)": {
        "details": "See {IERC721-balanceOf}."
      },
      "getApproved(uint256)": {
        "details": "See {IERC721-getApproved}."
      },
      "isApprovedForAll(address,address)": {
        "details": "See {IERC721-isApprovedForAll}."
      },
      "name()": {
        "details": "See {IERC721Metadata-name}."
      },
      "ownerOf(uint256)": {
        "details": "See {IERC721-ownerOf}."
      },
      "safeTransferFrom(address,address,uint256)": {
        "details": "See {IERC721-safeTransferFrom}."
      },
      "safeTransferFrom(address,address,uint256,bytes)": {
        "details": "See {IERC721-safeTransferFrom}."
      },
      "setApprovalForAll(address,bool)": {
        "details": "See {IERC721-setApprovalForAll}."
      },
      "supportsInterface(bytes4)": {
        "details": "See {IERC165-supportsInterface}."
      },
      "symbol()": {
        "details": "See {IERC721Metadata-symbol}."
      },
      "tokenURI(uint256)": {
        "details": "See {IERC721Metadata-tokenURI}."
      },
      "transferFrom(address,address,uint256)": {
        "details": "See {IERC721-transferFrom}."
      }
    },
    "version": 1
  },
  "userdoc": {
    "kind": "user",
    "methods": {},
    "version": 1
  }
}